{
  "_format": "hh-sol-artifact-1",
  "contractName": "Voting",
  "sourceName": "contracts/Voting.sol",
  "abi": [
    {
      "inputs": [
        {
          "internalType": "string[]",
          "name": "_stateNames",
          "type": "string[]"
        },
        {
          "internalType": "string[][]",
          "name": "_cityNames",
          "type": "string[][]"
        },
        {
          "internalType": "string[][][]",
          "name": "_candidateNames",
          "type": "string[][][]"
        },
        {
          "internalType": "string[][][]",
          "name": "_candidateParties",
          "type": "string[][][]"
        },
        {
          "internalType": "string[][][]",
          "name": "_candidateLogos",
          "type": "string[][][]"
        },
        {
          "internalType": "uint256",
          "name": "_durationInMinutes",
          "type": "uint256"
        },
        {
          "components": [
            {
              "internalType": "string",
              "name": "name",
              "type": "string"
            },
            {
              "internalType": "string",
              "name": "adharNo",
              "type": "string"
            },
            {
              "internalType": "uint256",
              "name": "stateIndex",
              "type": "uint256"
            },
            {
              "internalType": "uint256",
              "name": "cityIndex",
              "type": "uint256"
            }
          ],
          "internalType": "struct Voting.User[]",
          "name": "_users",
          "type": "tuple[]"
        }
      ],
      "stateMutability": "nonpayable",
      "type": "constructor"
    },
    {
      "inputs": [
        {
          "internalType": "uint256",
          "name": "_stateIndex",
          "type": "uint256"
        },
        {
          "internalType": "uint256",
          "name": "_cityIndex",
          "type": "uint256"
        },
        {
          "internalType": "string",
          "name": "_name",
          "type": "string"
        },
        {
          "internalType": "string",
          "name": "_party",
          "type": "string"
        },
        {
          "internalType": "string",
          "name": "_logoUrl",
          "type": "string"
        }
      ],
      "name": "addCandidate",
      "outputs": [],
      "stateMutability": "nonpayable",
      "type": "function"
    },
    {
      "inputs": [],
      "name": "getAllVotesOfCandidates",
      "outputs": [
        {
          "internalType": "string[]",
          "name": "",
          "type": "string[]"
        },
        {
          "internalType": "uint256[]",
          "name": "",
          "type": "uint256[]"
        },
        {
          "internalType": "uint256",
          "name": "",
          "type": "uint256"
        },
        {
          "internalType": "uint256",
          "name": "",
          "type": "uint256"
        }
      ],
      "stateMutability": "view",
      "type": "function"
    },
    {
      "inputs": [
        {
          "internalType": "uint256",
          "name": "_stateIndex",
          "type": "uint256"
        },
        {
          "internalType": "uint256",
          "name": "_cityIndex",
          "type": "uint256"
        }
      ],
      "name": "getCandidateVotesInCity",
      "outputs": [
        {
          "internalType": "string[]",
          "name": "",
          "type": "string[]"
        },
        {
          "internalType": "string[]",
          "name": "",
          "type": "string[]"
        },
        {
          "internalType": "uint256[]",
          "name": "",
          "type": "uint256[]"
        }
      ],
      "stateMutability": "view",
      "type": "function"
    },
    {
      "inputs": [
        {
          "internalType": "string",
          "name": "_adharNo",
          "type": "string"
        }
      ],
      "name": "getCandidatesForVoter",
      "outputs": [
        {
          "components": [
            {
              "internalType": "string",
              "name": "name",
              "type": "string"
            },
            {
              "internalType": "string",
              "name": "adharNo",
              "type": "string"
            },
            {
              "internalType": "uint256",
              "name": "stateIndex",
              "type": "uint256"
            },
            {
              "internalType": "uint256",
              "name": "cityIndex",
              "type": "uint256"
            }
          ],
          "internalType": "struct Voting.User",
          "name": "",
          "type": "tuple"
        },
        {
          "components": [
            {
              "internalType": "string",
              "name": "name",
              "type": "string"
            },
            {
              "internalType": "string",
              "name": "party",
              "type": "string"
            },
            {
              "internalType": "string",
              "name": "logoUrl",
              "type": "string"
            },
            {
              "internalType": "uint256",
              "name": "voteCount",
              "type": "uint256"
            }
          ],
          "internalType": "struct Voting.Candidate[]",
          "name": "",
          "type": "tuple[]"
        }
      ],
      "stateMutability": "view",
      "type": "function"
    },
    {
      "inputs": [],
      "name": "getRemainingTime",
      "outputs": [
        {
          "internalType": "uint256",
          "name": "",
          "type": "uint256"
        }
      ],
      "stateMutability": "view",
      "type": "function"
    },
    {
      "inputs": [],
      "name": "getStateCityInfo",
      "outputs": [
        {
          "internalType": "string[]",
          "name": "",
          "type": "string[]"
        },
        {
          "internalType": "uint256[]",
          "name": "",
          "type": "uint256[]"
        },
        {
          "internalType": "string[][]",
          "name": "",
          "type": "string[][]"
        },
        {
          "internalType": "uint256[][]",
          "name": "",
          "type": "uint256[][]"
        }
      ],
      "stateMutability": "view",
      "type": "function"
    },
    {
      "inputs": [],
      "name": "getVotingStatus",
      "outputs": [
        {
          "internalType": "string",
          "name": "",
          "type": "string"
        }
      ],
      "stateMutability": "view",
      "type": "function"
    },
    {
      "inputs": [
        {
          "internalType": "uint256",
          "name": "",
          "type": "uint256"
        }
      ],
      "name": "states",
      "outputs": [
        {
          "internalType": "string",
          "name": "name",
          "type": "string"
        }
      ],
      "stateMutability": "view",
      "type": "function"
    },
    {
      "inputs": [
        {
          "internalType": "string",
          "name": "",
          "type": "string"
        }
      ],
      "name": "users",
      "outputs": [
        {
          "internalType": "string",
          "name": "name",
          "type": "string"
        },
        {
          "internalType": "string",
          "name": "adharNo",
          "type": "string"
        },
        {
          "internalType": "uint256",
          "name": "stateIndex",
          "type": "uint256"
        },
        {
          "internalType": "uint256",
          "name": "cityIndex",
          "type": "uint256"
        }
      ],
      "stateMutability": "view",
      "type": "function"
    },
    {
      "inputs": [
        {
          "internalType": "string",
          "name": "_adharNo",
          "type": "string"
        },
        {
          "internalType": "uint256",
          "name": "_stateIndex",
          "type": "uint256"
        },
        {
          "internalType": "uint256",
          "name": "_cityIndex",
          "type": "uint256"
        },
        {
          "internalType": "uint256",
          "name": "_candidateIndex",
          "type": "uint256"
        }
      ],
      "name": "vote",
      "outputs": [],
      "stateMutability": "nonpayable",
      "type": "function"
    },
    {
      "inputs": [
        {
          "internalType": "string",
          "name": "",
          "type": "string"
        }
      ],
      "name": "voters",
      "outputs": [
        {
          "internalType": "bool",
          "name": "",
          "type": "bool"
        }
      ],
      "stateMutability": "view",
      "type": "function"
    },
    {
      "inputs": [],
      "name": "votingEnd",
      "outputs": [
        {
          "internalType": "uint256",
          "name": "",
          "type": "uint256"
        }
      ],
      "stateMutability": "view",
      "type": "function"
    },
    {
      "inputs": [],
      "name": "votingStart",
      "outputs": [
        {
          "internalType": "uint256",
          "name": "",
          "type": "uint256"
        }
      ],
      "stateMutability": "view",
      "type": "function"
    }
  ],
  "bytecode": "0x60806040523480156200001157600080fd5b506040516200435838038062004358833981810160405281019062000037919062000cdf565b855187511480156200004a575084518751145b801562000058575083518751145b801562000066575082518751145b620000a8576040517f08c379a00000000000000000000000000000000000000000000000000000000081526004016200009f9062000ead565b60405180910390fd5b33600360006101000a81548173ffffffffffffffffffffffffffffffffffffffff021916908373ffffffffffffffffffffffffffffffffffffffff16021790555042600481905550603c82620000ff919062000efe565b426200010c919062000f5f565b60058190555060005b87518110156200046957600080600181600181540180825580915050039060005260206000209060020201905088828151811062000158576200015762000fbc565b5b602002602001015181600001908051906020019062000179929190620005a9565b5060005b88838151811062000193576200019262000fbc565b5b60200260200101515181101562000451576000826001016001816001815401808255809150500390600052602060002090600202019050898481518110620001e057620001df62000fbc565b5b60200260200101518281518110620001fd57620001fc62000fbc565b5b60200260200101518160000190805190602001906200021e929190620005a9565b5060005b89858151811062000238576200023762000fbc565b5b6020026020010151838151811062000255576200025462000fbc565b5b60200260200101515181101562000439578160010160405180608001604052808c88815181106200028b576200028a62000fbc565b5b60200260200101518681518110620002a857620002a762000fbc565b5b60200260200101518481518110620002c557620002c462000fbc565b5b602002602001015181526020018b8881518110620002e857620002e762000fbc565b5b6020026020010151868151811062000305576200030462000fbc565b5b6020026020010151848151811062000322576200032162000fbc565b5b602002602001015181526020018a888151811062000345576200034462000fbc565b5b6020026020010151868151811062000362576200036162000fbc565b5b602002602001015184815181106200037f576200037e62000fbc565b5b60200260200101518152602001600081525090806001815401808255809150506001900390600052602060002090600402016000909190919091506000820151816000019080519060200190620003d8929190620005a9565b506020820151816001019080519060200190620003f7929190620005a9565b50604082015181600201908051906020019062000416929190620005a9565b506060820151816003015550508080620004309062000feb565b91505062000222565b50508080620004489062000feb565b9150506200017d565b50508080620004609062000feb565b91505062000115565b5060005b81518110156200059b578181815181106200048d576200048c62000fbc565b5b60200260200101516001838381518110620004ad57620004ac62000fbc565b5b602002602001015160200151604051620004c8919062001086565b90815260200160405180910390206000820151816000019080519060200190620004f4929190620005a9565b50602082015181600101908051906020019062000513929190620005a9565b5060408201518160020155606082015181600301559050506000600283838151811062000545576200054462000fbc565b5b60200260200101516020015160405162000560919062001086565b908152602001604051809103902060006101000a81548160ff0219169083151502179055508080620005929062000feb565b9150506200046d565b505050505050505062001104565b828054620005b790620010ce565b90600052602060002090601f016020900481019282620005db576000855562000627565b82601f10620005f657805160ff191683800117855562000627565b8280016001018555821562000627579182015b828111156200062657825182559160200191906001019062000609565b5b5090506200063691906200063a565b5090565b5b80821115620006555760008160009055506001016200063b565b5090565b6000604051905090565b600080fd5b600080fd5b600080fd5b6000601f19601f8301169050919050565b7f4e487b7100000000000000000000000000000000000000000000000000000000600052604160045260246000fd5b620006bd8262000672565b810181811067ffffffffffffffff82111715620006df57620006de62000683565b5b80604052505050565b6000620006f462000659565b9050620007028282620006b2565b919050565b600067ffffffffffffffff82111562000725576200072462000683565b5b602082029050602081019050919050565b600080fd5b600080fd5b600067ffffffffffffffff8211156200075e576200075d62000683565b5b620007698262000672565b9050602081019050919050565b60005b838110156200079657808201518184015260208101905062000779565b83811115620007a6576000848401525b50505050565b6000620007c3620007bd8462000740565b620006e8565b905082815260208101848484011115620007e257620007e16200073b565b5b620007ef84828562000776565b509392505050565b600082601f8301126200080f576200080e6200066d565b5b815162000821848260208601620007ac565b91505092915050565b6000620008416200083b8462000707565b620006e8565b9050808382526020820190506020840283018581111562000867576200086662000736565b5b835b81811015620008b557805167ffffffffffffffff81111562000890576200088f6200066d565b5b8086016200089f8982620007f7565b8552602085019450505060208101905062000869565b5050509392505050565b600082601f830112620008d757620008d66200066d565b5b8151620008e98482602086016200082a565b91505092915050565b600067ffffffffffffffff82111562000910576200090f62000683565b5b602082029050602081019050919050565b6000620009386200093284620008f2565b620006e8565b905080838252602082019050602084028301858111156200095e576200095d62000736565b5b835b81811015620009ac57805167ffffffffffffffff8111156200098757620009866200066d565b5b808601620009968982620008bf565b8552602085019450505060208101905062000960565b5050509392505050565b600082601f830112620009ce57620009cd6200066d565b5b8151620009e084826020860162000921565b91505092915050565b600067ffffffffffffffff82111562000a075762000a0662000683565b5b602082029050602081019050919050565b600062000a2f62000a2984620009e9565b620006e8565b9050808382526020820190506020840283018581111562000a555762000a5462000736565b5b835b8181101562000aa357805167ffffffffffffffff81111562000a7e5762000a7d6200066d565b5b80860162000a8d8982620009b6565b8552602085019450505060208101905062000a57565b5050509392505050565b600082601f83011262000ac55762000ac46200066d565b5b815162000ad784826020860162000a18565b91505092915050565b6000819050919050565b62000af58162000ae0565b811462000b0157600080fd5b50565b60008151905062000b158162000aea565b92915050565b600067ffffffffffffffff82111562000b395762000b3862000683565b5b602082029050602081019050919050565b600080fd5b600080fd5b60006080828403121562000b6d5762000b6c62000b4a565b5b62000b796080620006e8565b9050600082015167ffffffffffffffff81111562000b9c5762000b9b62000b4f565b5b62000baa84828501620007f7565b600083015250602082015167ffffffffffffffff81111562000bd15762000bd062000b4f565b5b62000bdf84828501620007f7565b602083015250604062000bf58482850162000b04565b604083015250606062000c0b8482850162000b04565b60608301525092915050565b600062000c2e62000c288462000b1b565b620006e8565b9050808382526020820190506020840283018581111562000c545762000c5362000736565b5b835b8181101562000ca257805167ffffffffffffffff81111562000c7d5762000c7c6200066d565b5b80860162000c8c898262000b54565b8552602085019450505060208101905062000c56565b5050509392505050565b600082601f83011262000cc45762000cc36200066d565b5b815162000cd684826020860162000c17565b91505092915050565b600080600080600080600060e0888a03121562000d015762000d0062000663565b5b600088015167ffffffffffffffff81111562000d225762000d2162000668565b5b62000d308a828b01620008bf565b975050602088015167ffffffffffffffff81111562000d545762000d5362000668565b5b62000d628a828b01620009b6565b965050604088015167ffffffffffffffff81111562000d865762000d8562000668565b5b62000d948a828b0162000aad565b955050606088015167ffffffffffffffff81111562000db85762000db762000668565b5b62000dc68a828b0162000aad565b945050608088015167ffffffffffffffff81111562000dea5762000de962000668565b5b62000df88a828b0162000aad565b93505060a062000e0b8a828b0162000b04565b92505060c088015167ffffffffffffffff81111562000e2f5762000e2e62000668565b5b62000e3d8a828b0162000cac565b91505092959891949750929550565b600082825260208201905092915050565b7f496e707574206172726179206c656e67746873206d69736d6174636800000000600082015250565b600062000e95601c8362000e4c565b915062000ea28262000e5d565b602082019050919050565b6000602082019050818103600083015262000ec88162000e86565b9050919050565b7f4e487b7100000000000000000000000000000000000000000000000000000000600052601160045260246000fd5b600062000f0b8262000ae0565b915062000f188362000ae0565b9250817fffffffffffffffffffffffffffffffffffffffffffffffffffffffffffffffff048311821515161562000f545762000f5362000ecf565b5b828202905092915050565b600062000f6c8262000ae0565b915062000f798362000ae0565b9250827fffffffffffffffffffffffffffffffffffffffffffffffffffffffffffffffff0382111562000fb15762000fb062000ecf565b5b828201905092915050565b7f4e487b7100000000000000000000000000000000000000000000000000000000600052603260045260246000fd5b600062000ff88262000ae0565b91507fffffffffffffffffffffffffffffffffffffffffffffffffffffffffffffffff8214156200102e576200102d62000ecf565b5b600182019050919050565b600081519050919050565b600081905092915050565b60006200105c8262001039565b62001068818562001044565b93506200107a81856020860162000776565b80840191505092915050565b60006200109482846200104f565b915081905092915050565b7f4e487b7100000000000000000000000000000000000000000000000000000000600052602260045260246000fd5b60006002820490506001821680620010e757607f821691505b60208210811415620010fe57620010fd6200109f565b5b50919050565b61324480620011146000396000f3fe608060405234801561001057600080fd5b50600436106100cf5760003560e01c8063776a657b1161008c578063ba18fd0411610066578063ba18fd041461022f578063c31478ce1461024b578063e6e80c3c1461027d578063efb98bcf1461029e576100cf565b8063776a657b146101d457806385a38635146101f057806390a9ab901461020e576100cf565b8063017a9105146100d4578063101158af146101045780634e6f187a1461012257806353fa2e6414610153578063581c281c14610183578063689e1c03146101a1575b600080fd5b6100ee60048036038101906100e991906120a2565b6102bc565b6040516100fb9190612168565b60405180910390f35b61010c610372565b6040516101199190612199565b60405180910390f35b61013c600480360381019061013791906122e9565b610378565b60405161014a929190612528565b60405180910390f35b61016d600480360381019061016891906122e9565b610918565b60405161017a919061257a565b60405180910390f35b61018b61094e565b6040516101989190612168565b60405180910390f35b6101bb60048036038101906101b691906122e9565b6109e2565b6040516101cb9493929190612595565b60405180910390f35b6101ee60048036038101906101e991906125e8565b610b38565b005b6101f8610da8565b6040516102059190612199565b60405180910390f35b610216610dae565b60405161022694939291906127dc565b60405180910390f35b6102496004803603810190610244919061282f565b61142a565b005b610265600480360381019061026091906128fe565b611668565b6040516102749392919061293e565b60405180910390f35b610285611a8f565b6040516102959493929190612c03565b60405180910390f35b6102a6611f65565b6040516102b39190612199565b60405180910390f35b600081815481106102cc57600080fd5b90600052602060002090600202016000915090508060000180546102ef90612c93565b80601f016020809104026020016040519081016040528092919081815260200182805461031b90612c93565b80156103685780601f1061033d57610100808354040283529160200191610368565b820191906000526020600020905b81548152906001019060200180831161034b57829003601f168201915b5050505050905081565b60045481565b610380611f8d565b60606000805490506001846040516103989190612d01565b908152602001604051809103902060020154106103ea576040517f08c379a00000000000000000000000000000000000000000000000000000000081526004016103e190612d64565b60405180910390fd5b60006001846040516103fc9190612d01565b9081526020016040518091039020600201548154811061041f5761041e612d84565b5b9060005260206000209060020201600101805490506001846040516104449190612d01565b90815260200160405180910390206003015410610496576040517f08c379a000000000000000000000000000000000000000000000000000000000815260040161048d90612dff565b60405180910390fd5b60006001846040516104a89190612d01565b90815260200160405180910390206040518060800160405290816000820180546104d190612c93565b80601f01602080910402602001604051908101604052809291908181526020018280546104fd90612c93565b801561054a5780601f1061051f5761010080835404028352916020019161054a565b820191906000526020600020905b81548152906001019060200180831161052d57829003601f168201915b5050505050815260200160018201805461056390612c93565b80601f016020809104026020016040519081016040528092919081815260200182805461058f90612c93565b80156105dc5780601f106105b1576101008083540402835291602001916105dc565b820191906000526020600020905b8154815290600101906020018083116105bf57829003601f168201915b5050505050815260200160028201548152602001600382015481525050905060008082604001518154811061061457610613612d84565b5b906000526020600020906002020160010182606001518154811061063b5761063a612d84565b5b906000526020600020906002020160405180604001604052908160008201805461066490612c93565b80601f016020809104026020016040519081016040528092919081815260200182805461069090612c93565b80156106dd5780601f106106b2576101008083540402835291602001916106dd565b820191906000526020600020905b8154815290600101906020018083116106c057829003601f168201915b5050505050815260200160018201805480602002602001604051908101604052809291908181526020016000905b828210156108fd578382906000526020600020906004020160405180608001604052908160008201805461073e90612c93565b80601f016020809104026020016040519081016040528092919081815260200182805461076a90612c93565b80156107b75780601f1061078c576101008083540402835291602001916107b7565b820191906000526020600020905b81548152906001019060200180831161079a57829003601f168201915b505050505081526020016001820180546107d090612c93565b80601f01602080910402602001604051908101604052809291908181526020018280546107fc90612c93565b80156108495780601f1061081e57610100808354040283529160200191610849565b820191906000526020600020905b81548152906001019060200180831161082c57829003601f168201915b5050505050815260200160028201805461086290612c93565b80601f016020809104026020016040519081016040528092919081815260200182805461088e90612c93565b80156108db5780601f106108b0576101008083540402835291602001916108db565b820191906000526020600020905b8154815290600101906020018083116108be57829003601f168201915b505050505081526020016003820154815250508152602001906001019061070b565b50505050815250509050818160200151935093505050915091565b6002818051602081018201805184825260208301602085012081835280955050505050506000915054906101000a900460ff1681565b6060600454421015801561096457506005544211155b156109a6576040518060400160405280601881526020017f566f74696e672069732063757272656e746c79206f70656e000000000000000081525090506109df565b6040518060400160405280601281526020017f566f74696e672069732066696e6973686564000000000000000000000000000081525090505b90565b600181805160208101820180518482526020830160208501208183528095505050505050600091509050806000018054610a1b90612c93565b80601f0160208091040260200160405190810160405280929190818152602001828054610a4790612c93565b8015610a945780601f10610a6957610100808354040283529160200191610a94565b820191906000526020600020905b815481529060010190602001808311610a7757829003601f168201915b505050505090806001018054610aa990612c93565b80601f0160208091040260200160405190810160405280929190818152602001828054610ad590612c93565b8015610b225780601f10610af757610100808354040283529160200191610b22565b820191906000526020600020905b815481529060010190602001808311610b0557829003601f168201915b5050505050908060020154908060030154905084565b60001515600285604051610b4c9190612d01565b908152602001604051809103902060009054906101000a900460ff16151514610baa576040517f08c379a0000000000000000000000000000000000000000000000000000000008152600401610ba190612e91565b60405180910390fd5b6000805490508310610bf1576040517f08c379a0000000000000000000000000000000000000000000000000000000008152600401610be890612efd565b60405180910390fd5b60008381548110610c0557610c04612d84565b5b9060005260206000209060020201600101805490508210610c5b576040517f08c379a0000000000000000000000000000000000000000000000000000000008152600401610c5290612f69565b60405180910390fd5b60008381548110610c6f57610c6e612d84565b5b90600052602060002090600202016001018281548110610c9257610c91612d84565b5b9060005260206000209060020201600101805490508110610ce8576040517f08c379a0000000000000000000000000000000000000000000000000000000008152600401610cdf90612fd5565b60405180910390fd5b600160008481548110610cfe57610cfd612d84565b5b90600052602060002090600202016001018381548110610d2157610d20612d84565b5b90600052602060002090600202016001018281548110610d4457610d43612d84565b5b90600052602060002090600402016003016000828254610d649190613024565b925050819055506001600285604051610d7d9190612d01565b908152602001604051809103902060006101000a81548160ff02191690831515021790555050505050565b60055481565b6060806000806000806000806000606467ffffffffffffffff811115610dd757610dd66121be565b5b604051908082528060200260200182016040528015610e0a57816020015b6060815260200190600190039081610df55790505b5090506000606467ffffffffffffffff811115610e2a57610e296121be565b5b604051908082528060200260200182016040528015610e585781602001602082028036833780820191505090505b50905060005b60008054905081101561114c5760005b60008281548110610e8257610e81612d84565b5b9060005260206000209060020201600101805490508110156111385760005b60008381548110610eb557610eb4612d84565b5b90600052602060002090600202016001018281548110610ed857610ed7612d84565b5b906000526020600020906002020160010180549050811015611124576000808481548110610f0957610f08612d84565b5b90600052602060002090600202016001018381548110610f2c57610f2b612d84565b5b90600052602060002090600202016001018281548110610f4f57610f4e612d84565b5b906000526020600020906004020190506000805b8a81101561102b5782600101604051602001610f7f919061310e565b60405160208183030381529060405280519060200120888281518110610fa857610fa7612d84565b5b6020026020010151604051602001610fc09190612d01565b604051602081830303815290604052805190602001201415611018578260030154878281518110610ff457610ff3612d84565b5b602002602001018181516110089190613024565b915081815250506001915061102b565b808061102390613125565b915050610f63565b508061110f5781600101805461104090612c93565b80601f016020809104026020016040519081016040528092919081815260200182805461106c90612c93565b80156110b95780601f1061108e576101008083540402835291602001916110b9565b820191906000526020600020905b81548152906001019060200180831161109c57829003601f168201915b5050505050878b815181106110d1576110d0612d84565b5b60200260200101819052508160030154868b815181106110f4576110f3612d84565b5b602002602001018181525050898061110b90613125565b9a50505b5050808061111c90613125565b915050610ea1565b50808061113090613125565b915050610e6e565b50808061114490613125565b915050610e5e565b5060005b6000805490508110156112de5760005b6000828154811061117457611173612d84565b5b9060005260206000209060020201600101805490508110156112ca5760005b600083815481106111a7576111a6612d84565b5b906000526020600020906002020160010182815481106111ca576111c9612d84565b5b9060005260206000209060020201600101805490508110156112b6576002600084815481106111fc576111fb612d84565b5b9060005260206000209060020201600101838154811061121f5761121e612d84565b5b9060005260206000209060020201600101828154811061124257611241612d84565b5b9060005260206000209060040201600001604051611260919061310e565b908152602001604051809103902060009054906101000a900460ff161561129457888061128c90613125565b9950506112a3565b858061129f90613125565b9650505b80806112ae90613125565b915050611193565b5080806112c290613125565b915050611160565b5080806112d690613125565b915050611150565b5060008567ffffffffffffffff8111156112fb576112fa6121be565b5b60405190808252806020026020018201604052801561132e57816020015b60608152602001906001900390816113195790505b50905060008667ffffffffffffffff81111561134d5761134c6121be565b5b60405190808252806020026020018201604052801561137b5781602001602082028036833780820191505090505b50905060005b8781101561140f5784818151811061139c5761139b612d84565b5b60200260200101518382815181106113b7576113b6612d84565b5b60200260200101819052508381815181106113d5576113d4612d84565b5b60200260200101518282815181106113f0576113ef612d84565b5b602002602001018181525050808061140790613125565b915050611381565b50818189879b509b509b509b50505050505050505090919293565b600360009054906101000a900473ffffffffffffffffffffffffffffffffffffffff1673ffffffffffffffffffffffffffffffffffffffff163373ffffffffffffffffffffffffffffffffffffffff16146114ba576040517f08c379a00000000000000000000000000000000000000000000000000000000081526004016114b1906131ba565b60405180910390fd5b6000805490508510611501576040517f08c379a00000000000000000000000000000000000000000000000000000000081526004016114f890612efd565b60405180910390fd5b6000858154811061151557611514612d84565b5b906000526020600020906002020160010180549050841061156b576040517f08c379a000000000000000000000000000000000000000000000000000000000815260040161156290612f69565b60405180910390fd5b6000858154811061157f5761157e612d84565b5b906000526020600020906002020160010184815481106115a2576115a1612d84565b5b9060005260206000209060020201600101604051806080016040528085815260200184815260200183815260200160008152509080600181540180825580915050600190039060005260206000209060040201600090919091909150600082015181600001908051906020019061161a929190611fb5565b506020820151816001019080519060200190611637929190611fb5565b506040820151816002019080519060200190611654929190611fb5565b506060820151816003015550505050505050565b6060806060600080868154811061168257611681612d84565b5b906000526020600020906002020160010185815481106116a5576116a4612d84565b5b906000526020600020906002020160010180549050905060008167ffffffffffffffff8111156116d8576116d76121be565b5b60405190808252806020026020018201604052801561170b57816020015b60608152602001906001900390816116f65790505b50905060008267ffffffffffffffff81111561172a576117296121be565b5b60405190808252806020026020018201604052801561175d57816020015b60608152602001906001900390816117485790505b50905060008367ffffffffffffffff81111561177c5761177b6121be565b5b6040519080825280602002602001820160405280156117aa5781602001602082028036833780820191505090505b50905060005b84811015611a7a5760008a815481106117cc576117cb612d84565b5b906000526020600020906002020160010189815481106117ef576117ee612d84565b5b9060005260206000209060020201600101818154811061181257611811612d84565b5b9060005260206000209060040201600001805461182e90612c93565b80601f016020809104026020016040519081016040528092919081815260200182805461185a90612c93565b80156118a75780601f1061187c576101008083540402835291602001916118a7565b820191906000526020600020905b81548152906001019060200180831161188a57829003601f168201915b50505050508482815181106118bf576118be612d84565b5b602002602001018190525060008a815481106118de576118dd612d84565b5b9060005260206000209060020201600101898154811061190157611900612d84565b5b9060005260206000209060020201600101818154811061192457611923612d84565b5b9060005260206000209060040201600101805461194090612c93565b80601f016020809104026020016040519081016040528092919081815260200182805461196c90612c93565b80156119b95780601f1061198e576101008083540402835291602001916119b9565b820191906000526020600020905b81548152906001019060200180831161199c57829003601f168201915b50505050508382815181106119d1576119d0612d84565b5b602002602001018190525060008a815481106119f0576119ef612d84565b5b90600052602060002090600202016001018981548110611a1357611a12612d84565b5b90600052602060002090600202016001018181548110611a3657611a35612d84565b5b906000526020600020906004020160030154828281518110611a5b57611a5a612d84565b5b6020026020010181815250508080611a7290613125565b9150506117b0565b50828282965096509650505050509250925092565b60608060608060008080549050905060008167ffffffffffffffff811115611aba57611ab96121be565b5b604051908082528060200260200182016040528015611aed57816020015b6060815260200190600190039081611ad85790505b50905060008267ffffffffffffffff811115611b0c57611b0b6121be565b5b604051908082528060200260200182016040528015611b3a5781602001602082028036833780820191505090505b50905060008367ffffffffffffffff811115611b5957611b586121be565b5b604051908082528060200260200182016040528015611b8c57816020015b6060815260200190600190039081611b775790505b50905060008467ffffffffffffffff811115611bab57611baa6121be565b5b604051908082528060200260200182016040528015611bde57816020015b6060815260200190600190039081611bc95790505b50905060005b85811015611f4d5760008181548110611c0057611bff612d84565b5b90600052602060002090600202016000018054611c1c90612c93565b80601f0160208091040260200160405190810160405280929190818152602001828054611c4890612c93565b8015611c955780601f10611c6a57610100808354040283529160200191611c95565b820191906000526020600020905b815481529060010190602001808311611c7857829003601f168201915b5050505050858281518110611cad57611cac612d84565b5b602002602001018190525080848281518110611ccc57611ccb612d84565b5b6020026020010181815250506000808281548110611ced57611cec612d84565b5b90600052602060002090600202016001018054905090508067ffffffffffffffff811115611d1e57611d1d6121be565b5b604051908082528060200260200182016040528015611d5157816020015b6060815260200190600190039081611d3c5790505b50848381518110611d6557611d64612d84565b5b60200260200101819052508067ffffffffffffffff811115611d8a57611d896121be565b5b604051908082528060200260200182016040528015611db85781602001602082028036833780820191505090505b50838381518110611dcc57611dcb612d84565b5b602002602001018190525060005b81811015611f385760008381548110611df657611df5612d84565b5b90600052602060002090600202016001018181548110611e1957611e18612d84565b5b90600052602060002090600202016000018054611e3590612c93565b80601f0160208091040260200160405190810160405280929190818152602001828054611e6190612c93565b8015611eae5780601f10611e8357610100808354040283529160200191611eae565b820191906000526020600020905b815481529060010190602001808311611e9157829003601f168201915b5050505050858481518110611ec657611ec5612d84565b5b60200260200101518281518110611ee057611edf612d84565b5b602002602001018190525080848481518110611eff57611efe612d84565b5b60200260200101518281518110611f1957611f18612d84565b5b6020026020010181815250508080611f3090613125565b915050611dda565b50508080611f4590613125565b915050611be4565b50838383839850985098509850505050505090919293565b60006005544210611f795760009050611f8a565b42600554611f8791906131da565b90505b90565b6040518060800160405280606081526020016060815260200160008152602001600081525090565b828054611fc190612c93565b90600052602060002090601f016020900481019282611fe3576000855561202a565b82601f10611ffc57805160ff191683800117855561202a565b8280016001018555821561202a579182015b8281111561202957825182559160200191906001019061200e565b5b509050612037919061203b565b5090565b5b8082111561205457600081600090555060010161203c565b5090565b6000604051905090565b600080fd5b600080fd5b6000819050919050565b61207f8161206c565b811461208a57600080fd5b50565b60008135905061209c81612076565b92915050565b6000602082840312156120b8576120b7612062565b5b60006120c68482850161208d565b91505092915050565b600081519050919050565b600082825260208201905092915050565b60005b838110156121095780820151818401526020810190506120ee565b83811115612118576000848401525b50505050565b6000601f19601f8301169050919050565b600061213a826120cf565b61214481856120da565b93506121548185602086016120eb565b61215d8161211e565b840191505092915050565b60006020820190508181036000830152612182818461212f565b905092915050565b6121938161206c565b82525050565b60006020820190506121ae600083018461218a565b92915050565b600080fd5b600080fd5b7f4e487b7100000000000000000000000000000000000000000000000000000000600052604160045260246000fd5b6121f68261211e565b810181811067ffffffffffffffff82111715612215576122146121be565b5b80604052505050565b6000612228612058565b905061223482826121ed565b919050565b600067ffffffffffffffff821115612254576122536121be565b5b61225d8261211e565b9050602081019050919050565b82818337600083830152505050565b600061228c61228784612239565b61221e565b9050828152602081018484840111156122a8576122a76121b9565b5b6122b384828561226a565b509392505050565b600082601f8301126122d0576122cf6121b4565b5b81356122e0848260208601612279565b91505092915050565b6000602082840312156122ff576122fe612062565b5b600082013567ffffffffffffffff81111561231d5761231c612067565b5b612329848285016122bb565b91505092915050565b600082825260208201905092915050565b600061234e826120cf565b6123588185612332565b93506123688185602086016120eb565b6123718161211e565b840191505092915050565b6123858161206c565b82525050565b600060808301600083015184820360008601526123a88282612343565b915050602083015184820360208601526123c28282612343565b91505060408301516123d7604086018261237c565b5060608301516123ea606086018261237c565b508091505092915050565b600081519050919050565b600082825260208201905092915050565b6000819050602082019050919050565b6000608083016000830151848203600086015261243e8282612343565b915050602083015184820360208601526124588282612343565b915050604083015184820360408601526124728282612343565b9150506060830151612487606086018261237c565b508091505092915050565b600061249e8383612421565b905092915050565b6000602082019050919050565b60006124be826123f5565b6124c88185612400565b9350836020820285016124da85612411565b8060005b8581101561251657848403895281516124f78582612492565b9450612502836124a6565b925060208a019950506001810190506124de565b50829750879550505050505092915050565b60006040820190508181036000830152612542818561238b565b9050818103602083015261255681846124b3565b90509392505050565b60008115159050919050565b6125748161255f565b82525050565b600060208201905061258f600083018461256b565b92915050565b600060808201905081810360008301526125af818761212f565b905081810360208301526125c3818661212f565b90506125d2604083018561218a565b6125df606083018461218a565b95945050505050565b6000806000806080858703121561260257612601612062565b5b600085013567ffffffffffffffff8111156126205761261f612067565b5b61262c878288016122bb565b945050602061263d8782880161208d565b935050604061264e8782880161208d565b925050606061265f8782880161208d565b91505092959194509250565b600081519050919050565b600082825260208201905092915050565b6000819050602082019050919050565b60006126a38383612343565b905092915050565b6000602082019050919050565b60006126c38261266b565b6126cd8185612676565b9350836020820285016126df85612687565b8060005b8581101561271b57848403895281516126fc8582612697565b9450612707836126ab565b925060208a019950506001810190506126e3565b50829750879550505050505092915050565b600081519050919050565b600082825260208201905092915050565b6000819050602082019050919050565b6000612765838361237c565b60208301905092915050565b6000602082019050919050565b60006127898261272d565b6127938185612738565b935061279e83612749565b8060005b838110156127cf5781516127b68882612759565b97506127c183612771565b9250506001810190506127a2565b5085935050505092915050565b600060808201905081810360008301526127f681876126b8565b9050818103602083015261280a818661277e565b9050612819604083018561218a565b612826606083018461218a565b95945050505050565b600080600080600060a0868803121561284b5761284a612062565b5b60006128598882890161208d565b955050602061286a8882890161208d565b945050604086013567ffffffffffffffff81111561288b5761288a612067565b5b612897888289016122bb565b935050606086013567ffffffffffffffff8111156128b8576128b7612067565b5b6128c4888289016122bb565b925050608086013567ffffffffffffffff8111156128e5576128e4612067565b5b6128f1888289016122bb565b9150509295509295909350565b6000806040838503121561291557612914612062565b5b60006129238582860161208d565b92505060206129348582860161208d565b9150509250929050565b6000606082019050818103600083015261295881866126b8565b9050818103602083015261296c81856126b8565b90508181036040830152612980818461277e565b9050949350505050565b600081519050919050565b600082825260208201905092915050565b6000819050602082019050919050565b600082825260208201905092915050565b60006129d28261266b565b6129dc81856129b6565b9350836020820285016129ee85612687565b8060005b85811015612a2a5784840389528151612a0b8582612697565b9450612a16836126ab565b925060208a019950506001810190506129f2565b50829750879550505050505092915050565b6000612a4883836129c7565b905092915050565b6000602082019050919050565b6000612a688261298a565b612a728185612995565b935083602082028501612a84856129a6565b8060005b85811015612ac05784840389528151612aa18582612a3c565b9450612aac83612a50565b925060208a01995050600181019050612a88565b50829750879550505050505092915050565b600081519050919050565b600082825260208201905092915050565b6000819050602082019050919050565b600082825260208201905092915050565b6000612b1a8261272d565b612b248185612afe565b9350612b2f83612749565b8060005b83811015612b60578151612b478882612759565b9750612b5283612771565b925050600181019050612b33565b5085935050505092915050565b6000612b798383612b0f565b905092915050565b6000602082019050919050565b6000612b9982612ad2565b612ba38185612add565b935083602082028501612bb585612aee565b8060005b85811015612bf15784840389528151612bd28582612b6d565b9450612bdd83612b81565b925060208a01995050600181019050612bb9565b50829750879550505050505092915050565b60006080820190508181036000830152612c1d81876126b8565b90508181036020830152612c31818661277e565b90508181036040830152612c458185612a5d565b90508181036060830152612c598184612b8e565b905095945050505050565b7f4e487b7100000000000000000000000000000000000000000000000000000000600052602260045260246000fd5b60006002820490506001821680612cab57607f821691505b60208210811415612cbf57612cbe612c64565b5b50919050565b600081905092915050565b6000612cdb826120cf565b612ce58185612cc5565b9350612cf58185602086016120eb565b80840191505092915050565b6000612d0d8284612cd0565b915081905092915050565b7f496e76616c696420737461746520696e64657820666f72207573657200000000600082015250565b6000612d4e601c836120da565b9150612d5982612d18565b602082019050919050565b60006020820190508181036000830152612d7d81612d41565b9050919050565b7f4e487b7100000000000000000000000000000000000000000000000000000000600052603260045260246000fd5b7f496e76616c6964206369747920696e64657820666f7220757365720000000000600082015250565b6000612de9601b836120da565b9150612df482612db3565b602082019050919050565b60006020820190508181036000830152612e1881612ddc565b9050919050565b7f557365722068617320616c726561647920766f7465642077697468207468697360008201527f20416164686172206e756d626572000000000000000000000000000000000000602082015250565b6000612e7b602e836120da565b9150612e8682612e1f565b604082019050919050565b60006020820190508181036000830152612eaa81612e6e565b9050919050565b7f496e76616c696420737461746520696e64657800000000000000000000000000600082015250565b6000612ee76013836120da565b9150612ef282612eb1565b602082019050919050565b60006020820190508181036000830152612f1681612eda565b9050919050565b7f496e76616c6964206369747920696e6465780000000000000000000000000000600082015250565b6000612f536012836120da565b9150612f5e82612f1d565b602082019050919050565b60006020820190508181036000830152612f8281612f46565b9050919050565b7f496e76616c69642063616e64696461746520696e646578000000000000000000600082015250565b6000612fbf6017836120da565b9150612fca82612f89565b602082019050919050565b60006020820190508181036000830152612fee81612fb2565b9050919050565b7f4e487b7100000000000000000000000000000000000000000000000000000000600052601160045260246000fd5b600061302f8261206c565b915061303a8361206c565b9250827fffffffffffffffffffffffffffffffffffffffffffffffffffffffffffffffff0382111561306f5761306e612ff5565b5b828201905092915050565b60008190508160005260206000209050919050565b6000815461309c81612c93565b6130a68186612cc5565b945060018216600081146130c157600181146130d257613105565b60ff19831686528186019350613105565b6130db8561307a565b60005b838110156130fd578154818901526001820191506020810190506130de565b838801955050505b50505092915050565b600061311a828461308f565b915081905092915050565b60006131308261206c565b91507fffffffffffffffffffffffffffffffffffffffffffffffffffffffffffffffff82141561316357613162612ff5565b5b600182019050919050565b7f43616c6c6572206973206e6f7420746865206f776e6572000000000000000000600082015250565b60006131a46017836120da565b91506131af8261316e565b602082019050919050565b600060208201905081810360008301526131d381613197565b9050919050565b60006131e58261206c565b91506131f08361206c565b92508282101561320357613202612ff5565b5b82820390509291505056fea2646970667358221220ef1b7684c050f68e387aaa51d1c206d805bd871f28a98bb198a22936199cc5fb64736f6c634300080b0033",
  "linkReferences": {},
  "deployedLinkReferences": {}
}