{
  "_format": "hh-sol-artifact-1",
  "contractName": "Voting",
  "sourceName": "contracts/Voting.sol",
  "abi": [
    {
      "inputs": [
        {
          "internalType": "string[]",
          "name": "_candidateNames",
          "type": "string[]"
        },
        {
          "internalType": "string[]",
          "name": "_candidateLogos",
          "type": "string[]"
        },
        {
          "internalType": "uint256",
          "name": "_durationInMinutes",
          "type": "uint256"
        }
      ],
      "stateMutability": "nonpayable",
      "type": "constructor"
    },
    {
      "inputs": [
        {
          "internalType": "string",
          "name": "_name",
          "type": "string"
        },
        {
          "internalType": "string",
          "name": "_logoUrl",
          "type": "string"
        }
      ],
      "name": "addCandidate",
      "outputs": [],
      "stateMutability": "nonpayable",
      "type": "function"
    },
    {
      "inputs": [
        {
          "internalType": "uint256",
          "name": "",
          "type": "uint256"
        }
      ],
      "name": "candidates",
      "outputs": [
        {
          "internalType": "string",
          "name": "name",
          "type": "string"
        },
        {
          "internalType": "string",
          "name": "logoUrl",
          "type": "string"
        },
        {
          "internalType": "uint256",
          "name": "voteCount",
          "type": "uint256"
        }
      ],
      "stateMutability": "view",
      "type": "function"
    },
    {
      "inputs": [],
      "name": "getAllVotesOfCandidates",
      "outputs": [
        {
          "components": [
            {
              "internalType": "string",
              "name": "name",
              "type": "string"
            },
            {
              "internalType": "string",
              "name": "logoUrl",
              "type": "string"
            },
            {
              "internalType": "uint256",
              "name": "voteCount",
              "type": "uint256"
            }
          ],
          "internalType": "struct Voting.Candidate[]",
          "name": "",
          "type": "tuple[]"
        }
      ],
      "stateMutability": "view",
      "type": "function"
    },
    {
      "inputs": [],
      "name": "getRemainingTime",
      "outputs": [
        {
          "internalType": "uint256",
          "name": "",
          "type": "uint256"
        }
      ],
      "stateMutability": "view",
      "type": "function"
    },
    {
      "inputs": [],
      "name": "getVotingStatus",
      "outputs": [
        {
          "internalType": "bool",
          "name": "",
          "type": "bool"
        }
      ],
      "stateMutability": "view",
      "type": "function"
    },
    {
      "inputs": [
        {
          "internalType": "uint256",
          "name": "_candidateIndex",
          "type": "uint256"
        }
      ],
      "name": "vote",
      "outputs": [],
      "stateMutability": "nonpayable",
      "type": "function"
    },
    {
      "inputs": [
        {
          "internalType": "address",
          "name": "",
          "type": "address"
        }
      ],
      "name": "voters",
      "outputs": [
        {
          "internalType": "bool",
          "name": "",
          "type": "bool"
        }
      ],
      "stateMutability": "view",
      "type": "function"
    },
    {
      "inputs": [],
      "name": "votingEnd",
      "outputs": [
        {
          "internalType": "uint256",
          "name": "",
          "type": "uint256"
        }
      ],
      "stateMutability": "view",
      "type": "function"
    },
    {
      "inputs": [],
      "name": "votingStart",
      "outputs": [
        {
          "internalType": "uint256",
          "name": "",
          "type": "uint256"
        }
      ],
      "stateMutability": "view",
      "type": "function"
    }
  ],
  "bytecode": "0x60806040523480156200001157600080fd5b506040516200190738038062001907833981810160405281019062000037919062000564565b81518351146200007e576040517f08c379a0000000000000000000000000000000000000000000000000000000008152600401620000759062000685565b60405180910390fd5b60005b83518110156200016c5760006040518060600160405280868481518110620000ae57620000ad620006a7565b5b60200260200101518152602001858481518110620000d157620000d0620006a7565b5b602002602001015181526020016000815250908060018154018082558091505060019003906000526020600020906003020160009091909190915060008201518160000190805190602001906200012a929190620001e0565b50602082015181600101908051906020019062000149929190620001e0565b506040820151816002015550508080620001639062000705565b91505062000081565b5033600160006101000a81548173ffffffffffffffffffffffffffffffffffffffff021916908373ffffffffffffffffffffffffffffffffffffffff16021790555042600381905550603c81620001c4919062000753565b42620001d19190620007b4565b60048190555050505062000876565b828054620001ee9062000840565b90600052602060002090601f0160209004810192826200021257600085556200025e565b82601f106200022d57805160ff19168380011785556200025e565b828001600101855582156200025e579182015b828111156200025d57825182559160200191906001019062000240565b5b5090506200026d919062000271565b5090565b5b808211156200028c57600081600090555060010162000272565b5090565b6000604051905090565b600080fd5b600080fd5b600080fd5b6000601f19601f8301169050919050565b7f4e487b7100000000000000000000000000000000000000000000000000000000600052604160045260246000fd5b620002f482620002a9565b810181811067ffffffffffffffff82111715620003165762000315620002ba565b5b80604052505050565b60006200032b62000290565b9050620003398282620002e9565b919050565b600067ffffffffffffffff8211156200035c576200035b620002ba565b5b602082029050602081019050919050565b600080fd5b600080fd5b600067ffffffffffffffff821115620003955762000394620002ba565b5b620003a082620002a9565b9050602081019050919050565b60005b83811015620003cd578082015181840152602081019050620003b0565b83811115620003dd576000848401525b50505050565b6000620003fa620003f48462000377565b6200031f565b90508281526020810184848401111562000419576200041862000372565b5b62000426848285620003ad565b509392505050565b600082601f830112620004465762000445620002a4565b5b815162000458848260208601620003e3565b91505092915050565b60006200047862000472846200033e565b6200031f565b905080838252602082019050602084028301858111156200049e576200049d6200036d565b5b835b81811015620004ec57805167ffffffffffffffff811115620004c757620004c6620002a4565b5b808601620004d689826200042e565b85526020850194505050602081019050620004a0565b5050509392505050565b600082601f8301126200050e576200050d620002a4565b5b81516200052084826020860162000461565b91505092915050565b6000819050919050565b6200053e8162000529565b81146200054a57600080fd5b50565b6000815190506200055e8162000533565b92915050565b60008060006060848603121562000580576200057f6200029a565b5b600084015167ffffffffffffffff811115620005a157620005a06200029f565b5b620005af86828701620004f6565b935050602084015167ffffffffffffffff811115620005d357620005d26200029f565b5b620005e186828701620004f6565b9250506040620005f4868287016200054d565b9150509250925092565b600082825260208201905092915050565b7f4e756d626572206f66206e616d657320616e64206c6f676f73206d757374206260008201527f6520657175616c2e000000000000000000000000000000000000000000000000602082015250565b60006200066d602883620005fe565b91506200067a826200060f565b604082019050919050565b60006020820190508181036000830152620006a0816200065e565b9050919050565b7f4e487b7100000000000000000000000000000000000000000000000000000000600052603260045260246000fd5b7f4e487b7100000000000000000000000000000000000000000000000000000000600052601160045260246000fd5b6000620007128262000529565b91507fffffffffffffffffffffffffffffffffffffffffffffffffffffffffffffffff821415620007485762000747620006d6565b5b600182019050919050565b6000620007608262000529565b91506200076d8362000529565b9250817fffffffffffffffffffffffffffffffffffffffffffffffffffffffffffffffff0483118215151615620007a957620007a8620006d6565b5b828202905092915050565b6000620007c18262000529565b9150620007ce8362000529565b9250827fffffffffffffffffffffffffffffffffffffffffffffffffffffffffffffffff03821115620008065762000805620006d6565b5b828201905092915050565b7f4e487b7100000000000000000000000000000000000000000000000000000000600052602260045260246000fd5b600060028204905060018216806200085957607f821691505b6020821081141562000870576200086f62000811565b5b50919050565b61108180620008866000396000f3fe608060405234801561001057600080fd5b50600436106100935760003560e01c8063581c281c11610066578063581c281c1461012057806385a386351461013e57806390a9ab901461015c578063a3ec138d1461017a578063efb98bcf146101aa57610093565b80630121b93f14610098578063101158af146100b457806326541b56146100d25780633477ee2e146100ee575b600080fd5b6100b260048036038101906100ad9190610894565b6101c8565b005b6100bc610332565b6040516100c991906108d0565b60405180910390f35b6100ec60048036038101906100e79190610a31565b610338565b005b61010860048036038101906101039190610894565b610423565b60405161011793929190610b31565b60405180910390f35b61012861056d565b6040516101359190610b91565b60405180910390f35b610146610587565b60405161015391906108d0565b60405180910390f35b61016461058d565b6040516101719190610d1e565b60405180910390f35b610194600480360381019061018f9190610d9e565b61071a565b6040516101a19190610b91565b60405180910390f35b6101b261073a565b6040516101bf91906108d0565b60405180910390f35b600260003373ffffffffffffffffffffffffffffffffffffffff1673ffffffffffffffffffffffffffffffffffffffff16815260200190815260200160002060009054906101000a900460ff1615610255576040517f08c379a000000000000000000000000000000000000000000000000000000000815260040161024c90610e17565b60405180910390fd5b600080549050811061029c576040517f08c379a000000000000000000000000000000000000000000000000000000000815260040161029390610e83565b60405180910390fd5b600081815481106102b0576102af610ea3565b5b906000526020600020906003020160020160008154809291906102d290610f01565b91905055506001600260003373ffffffffffffffffffffffffffffffffffffffff1673ffffffffffffffffffffffffffffffffffffffff16815260200190815260200160002060006101000a81548160ff02191690831515021790555050565b60035481565b600160009054906101000a900473ffffffffffffffffffffffffffffffffffffffff1673ffffffffffffffffffffffffffffffffffffffff163373ffffffffffffffffffffffffffffffffffffffff161461039257600080fd5b600060405180606001604052808481526020018381526020016000815250908060018154018082558091505060019003906000526020600020906003020160009091909190915060008201518160000190805190602001906103f59291906107a7565b5060208201518160010190805190602001906104129291906107a7565b506040820151816002015550505050565b6000818154811061043357600080fd5b906000526020600020906003020160009150905080600001805461045690610f79565b80601f016020809104026020016040519081016040528092919081815260200182805461048290610f79565b80156104cf5780601f106104a4576101008083540402835291602001916104cf565b820191906000526020600020905b8154815290600101906020018083116104b257829003601f168201915b5050505050908060010180546104e490610f79565b80601f016020809104026020016040519081016040528092919081815260200182805461051090610f79565b801561055d5780601f106105325761010080835404028352916020019161055d565b820191906000526020600020905b81548152906001019060200180831161054057829003601f168201915b5050505050908060020154905083565b60006003544210158015610582575060045442105b905090565b60045481565b60606000805480602002602001604051908101604052809291908181526020016000905b8282101561071157838290600052602060002090600302016040518060600160405290816000820180546105e490610f79565b80601f016020809104026020016040519081016040528092919081815260200182805461061090610f79565b801561065d5780601f106106325761010080835404028352916020019161065d565b820191906000526020600020905b81548152906001019060200180831161064057829003601f168201915b5050505050815260200160018201805461067690610f79565b80601f01602080910402602001604051908101604052809291908181526020018280546106a290610f79565b80156106ef5780601f106106c4576101008083540402835291602001916106ef565b820191906000526020600020905b8154815290600101906020018083116106d257829003601f168201915b50505050508152602001600282015481525050815260200190600101906105b1565b50505050905090565b60026020528060005260406000206000915054906101000a900460ff1681565b6000600354421015610781576040517f08c379a000000000000000000000000000000000000000000000000000000000815260040161077890610ff7565b60405180910390fd5b600454421061079357600090506107a4565b426004546107a19190611017565b90505b90565b8280546107b390610f79565b90600052602060002090601f0160209004810192826107d5576000855561081c565b82601f106107ee57805160ff191683800117855561081c565b8280016001018555821561081c579182015b8281111561081b578251825591602001919060010190610800565b5b509050610829919061082d565b5090565b5b8082111561084657600081600090555060010161082e565b5090565b6000604051905090565b600080fd5b600080fd5b6000819050919050565b6108718161085e565b811461087c57600080fd5b50565b60008135905061088e81610868565b92915050565b6000602082840312156108aa576108a9610854565b5b60006108b88482850161087f565b91505092915050565b6108ca8161085e565b82525050565b60006020820190506108e560008301846108c1565b92915050565b600080fd5b600080fd5b6000601f19601f8301169050919050565b7f4e487b7100000000000000000000000000000000000000000000000000000000600052604160045260246000fd5b61093e826108f5565b810181811067ffffffffffffffff8211171561095d5761095c610906565b5b80604052505050565b600061097061084a565b905061097c8282610935565b919050565b600067ffffffffffffffff82111561099c5761099b610906565b5b6109a5826108f5565b9050602081019050919050565b82818337600083830152505050565b60006109d46109cf84610981565b610966565b9050828152602081018484840111156109f0576109ef6108f0565b5b6109fb8482856109b2565b509392505050565b600082601f830112610a1857610a176108eb565b5b8135610a288482602086016109c1565b91505092915050565b60008060408385031215610a4857610a47610854565b5b600083013567ffffffffffffffff811115610a6657610a65610859565b5b610a7285828601610a03565b925050602083013567ffffffffffffffff811115610a9357610a92610859565b5b610a9f85828601610a03565b9150509250929050565b600081519050919050565b600082825260208201905092915050565b60005b83811015610ae3578082015181840152602081019050610ac8565b83811115610af2576000848401525b50505050565b6000610b0382610aa9565b610b0d8185610ab4565b9350610b1d818560208601610ac5565b610b26816108f5565b840191505092915050565b60006060820190508181036000830152610b4b8186610af8565b90508181036020830152610b5f8185610af8565b9050610b6e60408301846108c1565b949350505050565b60008115159050919050565b610b8b81610b76565b82525050565b6000602082019050610ba66000830184610b82565b92915050565b600081519050919050565b600082825260208201905092915050565b6000819050602082019050919050565b600082825260208201905092915050565b6000610bf482610aa9565b610bfe8185610bd8565b9350610c0e818560208601610ac5565b610c17816108f5565b840191505092915050565b610c2b8161085e565b82525050565b60006060830160008301518482036000860152610c4e8282610be9565b91505060208301518482036020860152610c688282610be9565b9150506040830151610c7d6040860182610c22565b508091505092915050565b6000610c948383610c31565b905092915050565b6000602082019050919050565b6000610cb482610bac565b610cbe8185610bb7565b935083602082028501610cd085610bc8565b8060005b85811015610d0c5784840389528151610ced8582610c88565b9450610cf883610c9c565b925060208a01995050600181019050610cd4565b50829750879550505050505092915050565b60006020820190508181036000830152610d388184610ca9565b905092915050565b600073ffffffffffffffffffffffffffffffffffffffff82169050919050565b6000610d6b82610d40565b9050919050565b610d7b81610d60565b8114610d8657600080fd5b50565b600081359050610d9881610d72565b92915050565b600060208284031215610db457610db3610854565b5b6000610dc284828501610d89565b91505092915050565b7f596f75206861766520616c726561647920766f7465642e000000000000000000600082015250565b6000610e01601783610ab4565b9150610e0c82610dcb565b602082019050919050565b60006020820190508181036000830152610e3081610df4565b9050919050565b7f496e76616c69642063616e64696461746520696e6465782e0000000000000000600082015250565b6000610e6d601883610ab4565b9150610e7882610e37565b602082019050919050565b60006020820190508181036000830152610e9c81610e60565b9050919050565b7f4e487b7100000000000000000000000000000000000000000000000000000000600052603260045260246000fd5b7f4e487b7100000000000000000000000000000000000000000000000000000000600052601160045260246000fd5b6000610f0c8261085e565b91507fffffffffffffffffffffffffffffffffffffffffffffffffffffffffffffffff821415610f3f57610f3e610ed2565b5b600182019050919050565b7f4e487b7100000000000000000000000000000000000000000000000000000000600052602260045260246000fd5b60006002820490506001821680610f9157607f821691505b60208210811415610fa557610fa4610f4a565b5b50919050565b7f566f74696e6720686173206e6f742073746172746564207965742e0000000000600082015250565b6000610fe1601b83610ab4565b9150610fec82610fab565b602082019050919050565b6000602082019050818103600083015261101081610fd4565b9050919050565b60006110228261085e565b915061102d8361085e565b9250828210156110405761103f610ed2565b5b82820390509291505056fea2646970667358221220b526b1ecd2ddba13292e557334fc1f0da8021a3665b077b31b38866cf695615164736f6c634300080b0033",
  "linkReferences": {},
  "deployedLinkReferences": {}
}