{
  "_format": "hh-sol-artifact-1",
  "contractName": "Voting",
  "sourceName": "contracts/Voting.sol",
  "abi": [
    {
      "inputs": [
        {
          "internalType": "string[]",
          "name": "_stateNames",
          "type": "string[]"
        },
        {
          "internalType": "string[][]",
          "name": "_cityNames",
          "type": "string[][]"
        },
        {
          "internalType": "string[][][]",
          "name": "_candidateNames",
          "type": "string[][][]"
        },
        {
          "internalType": "string[][][]",
          "name": "_candidateParties",
          "type": "string[][][]"
        },
        {
          "internalType": "string[][][]",
          "name": "_candidateLogos",
          "type": "string[][][]"
        },
        {
          "internalType": "uint256",
          "name": "_durationInMinutes",
          "type": "uint256"
        },
        {
          "components": [
            {
              "internalType": "string",
              "name": "name",
              "type": "string"
            },
            {
              "internalType": "string",
              "name": "adharNo",
              "type": "string"
            },
            {
              "internalType": "uint256",
              "name": "stateIndex",
              "type": "uint256"
            },
            {
              "internalType": "uint256",
              "name": "cityIndex",
              "type": "uint256"
            }
          ],
          "internalType": "struct Voting.User[]",
          "name": "_users",
          "type": "tuple[]"
        }
      ],
      "stateMutability": "nonpayable",
      "type": "constructor"
    },
    {
      "inputs": [
        {
          "internalType": "uint256",
          "name": "_stateIndex",
          "type": "uint256"
        },
        {
          "internalType": "uint256",
          "name": "_cityIndex",
          "type": "uint256"
        },
        {
          "internalType": "string",
          "name": "_name",
          "type": "string"
        },
        {
          "internalType": "string",
          "name": "_party",
          "type": "string"
        },
        {
          "internalType": "string",
          "name": "_logoUrl",
          "type": "string"
        }
      ],
      "name": "addCandidate",
      "outputs": [],
      "stateMutability": "nonpayable",
      "type": "function"
    },
    {
      "inputs": [
        {
          "internalType": "uint256",
          "name": "_stateIndex",
          "type": "uint256"
        },
        {
          "internalType": "uint256",
          "name": "_cityIndex",
          "type": "uint256"
        }
      ],
      "name": "getCandidateVotesInCity",
      "outputs": [
        {
          "internalType": "string[]",
          "name": "",
          "type": "string[]"
        },
        {
          "internalType": "string[]",
          "name": "",
          "type": "string[]"
        },
        {
          "internalType": "uint256[]",
          "name": "",
          "type": "uint256[]"
        }
      ],
      "stateMutability": "view",
      "type": "function"
    },
    {
      "inputs": [
        {
          "internalType": "uint256",
          "name": "_stateIndex",
          "type": "uint256"
        },
        {
          "internalType": "uint256",
          "name": "_cityIndex",
          "type": "uint256"
        }
      ],
      "name": "getCityWinner",
      "outputs": [
        {
          "internalType": "string",
          "name": "",
          "type": "string"
        }
      ],
      "stateMutability": "view",
      "type": "function"
    },
    {
      "inputs": [],
      "name": "getOverallWinner",
      "outputs": [
        {
          "internalType": "string",
          "name": "",
          "type": "string"
        }
      ],
      "stateMutability": "view",
      "type": "function"
    },
    {
      "inputs": [],
      "name": "getRemainingTime",
      "outputs": [
        {
          "internalType": "uint256",
          "name": "",
          "type": "uint256"
        }
      ],
      "stateMutability": "view",
      "type": "function"
    },
    {
      "inputs": [],
      "name": "getStateCityInfo",
      "outputs": [
        {
          "internalType": "string[]",
          "name": "",
          "type": "string[]"
        },
        {
          "internalType": "uint256[]",
          "name": "",
          "type": "uint256[]"
        },
        {
          "internalType": "string[][]",
          "name": "",
          "type": "string[][]"
        },
        {
          "internalType": "uint256[][]",
          "name": "",
          "type": "uint256[][]"
        }
      ],
      "stateMutability": "view",
      "type": "function"
    },
    {
      "inputs": [
        {
          "internalType": "uint256",
          "name": "_stateIndex",
          "type": "uint256"
        }
      ],
      "name": "getStateWinner",
      "outputs": [
        {
          "internalType": "string",
          "name": "",
          "type": "string"
        }
      ],
      "stateMutability": "view",
      "type": "function"
    },
    {
      "inputs": [],
      "name": "getVotingStatus",
      "outputs": [
        {
          "internalType": "string",
          "name": "",
          "type": "string"
        }
      ],
      "stateMutability": "view",
      "type": "function"
    },
    {
      "inputs": [
        {
          "internalType": "uint256",
          "name": "",
          "type": "uint256"
        }
      ],
      "name": "states",
      "outputs": [
        {
          "internalType": "string",
          "name": "name",
          "type": "string"
        }
      ],
      "stateMutability": "view",
      "type": "function"
    },
    {
      "inputs": [
        {
          "internalType": "string",
          "name": "",
          "type": "string"
        }
      ],
      "name": "users",
      "outputs": [
        {
          "internalType": "string",
          "name": "name",
          "type": "string"
        },
        {
          "internalType": "string",
          "name": "adharNo",
          "type": "string"
        },
        {
          "internalType": "uint256",
          "name": "stateIndex",
          "type": "uint256"
        },
        {
          "internalType": "uint256",
          "name": "cityIndex",
          "type": "uint256"
        }
      ],
      "stateMutability": "view",
      "type": "function"
    },
    {
      "inputs": [
        {
          "internalType": "string",
          "name": "_adharNo",
          "type": "string"
        },
        {
          "internalType": "uint256",
          "name": "_stateIndex",
          "type": "uint256"
        },
        {
          "internalType": "uint256",
          "name": "_cityIndex",
          "type": "uint256"
        },
        {
          "internalType": "uint256",
          "name": "_candidateIndex",
          "type": "uint256"
        }
      ],
      "name": "vote",
      "outputs": [],
      "stateMutability": "nonpayable",
      "type": "function"
    },
    {
      "inputs": [
        {
          "internalType": "string",
          "name": "",
          "type": "string"
        }
      ],
      "name": "voters",
      "outputs": [
        {
          "internalType": "bool",
          "name": "",
          "type": "bool"
        }
      ],
      "stateMutability": "view",
      "type": "function"
    },
    {
      "inputs": [],
      "name": "votingEnd",
      "outputs": [
        {
          "internalType": "uint256",
          "name": "",
          "type": "uint256"
        }
      ],
      "stateMutability": "view",
      "type": "function"
    },
    {
      "inputs": [],
      "name": "votingStart",
      "outputs": [
        {
          "internalType": "uint256",
          "name": "",
          "type": "uint256"
        }
      ],
      "stateMutability": "view",
      "type": "function"
    }
  ],
  "bytecode": "0x60806040523480156200001157600080fd5b5060405162003a5738038062003a57833981810160405281019062000037919062000cdf565b855187511480156200004a575084518751145b801562000058575083518751145b801562000066575082518751145b620000a8576040517f08c379a00000000000000000000000000000000000000000000000000000000081526004016200009f9062000ead565b60405180910390fd5b33600360006101000a81548173ffffffffffffffffffffffffffffffffffffffff021916908373ffffffffffffffffffffffffffffffffffffffff16021790555042600481905550603c82620000ff919062000efe565b426200010c919062000f5f565b60058190555060005b87518110156200046957600080600181600181540180825580915050039060005260206000209060020201905088828151811062000158576200015762000fbc565b5b602002602001015181600001908051906020019062000179929190620005a9565b5060005b88838151811062000193576200019262000fbc565b5b60200260200101515181101562000451576000826001016001816001815401808255809150500390600052602060002090600202019050898481518110620001e057620001df62000fbc565b5b60200260200101518281518110620001fd57620001fc62000fbc565b5b60200260200101518160000190805190602001906200021e929190620005a9565b5060005b89858151811062000238576200023762000fbc565b5b6020026020010151838151811062000255576200025462000fbc565b5b60200260200101515181101562000439578160010160405180608001604052808c88815181106200028b576200028a62000fbc565b5b60200260200101518681518110620002a857620002a762000fbc565b5b60200260200101518481518110620002c557620002c462000fbc565b5b602002602001015181526020018b8881518110620002e857620002e762000fbc565b5b6020026020010151868151811062000305576200030462000fbc565b5b6020026020010151848151811062000322576200032162000fbc565b5b602002602001015181526020018a888151811062000345576200034462000fbc565b5b6020026020010151868151811062000362576200036162000fbc565b5b602002602001015184815181106200037f576200037e62000fbc565b5b60200260200101518152602001600081525090806001815401808255809150506001900390600052602060002090600402016000909190919091506000820151816000019080519060200190620003d8929190620005a9565b506020820151816001019080519060200190620003f7929190620005a9565b50604082015181600201908051906020019062000416929190620005a9565b506060820151816003015550508080620004309062000feb565b91505062000222565b50508080620004489062000feb565b9150506200017d565b50508080620004609062000feb565b91505062000115565b5060005b81518110156200059b578181815181106200048d576200048c62000fbc565b5b60200260200101516001838381518110620004ad57620004ac62000fbc565b5b602002602001015160200151604051620004c8919062001086565b90815260200160405180910390206000820151816000019080519060200190620004f4929190620005a9565b50602082015181600101908051906020019062000513929190620005a9565b5060408201518160020155606082015181600301559050506000600283838151811062000545576200054462000fbc565b5b60200260200101516020015160405162000560919062001086565b908152602001604051809103902060006101000a81548160ff0219169083151502179055508080620005929062000feb565b9150506200046d565b505050505050505062001104565b828054620005b790620010ce565b90600052602060002090601f016020900481019282620005db576000855562000627565b82601f10620005f657805160ff191683800117855562000627565b8280016001018555821562000627579182015b828111156200062657825182559160200191906001019062000609565b5b5090506200063691906200063a565b5090565b5b80821115620006555760008160009055506001016200063b565b5090565b6000604051905090565b600080fd5b600080fd5b600080fd5b6000601f19601f8301169050919050565b7f4e487b7100000000000000000000000000000000000000000000000000000000600052604160045260246000fd5b620006bd8262000672565b810181811067ffffffffffffffff82111715620006df57620006de62000683565b5b80604052505050565b6000620006f462000659565b9050620007028282620006b2565b919050565b600067ffffffffffffffff82111562000725576200072462000683565b5b602082029050602081019050919050565b600080fd5b600080fd5b600067ffffffffffffffff8211156200075e576200075d62000683565b5b620007698262000672565b9050602081019050919050565b60005b838110156200079657808201518184015260208101905062000779565b83811115620007a6576000848401525b50505050565b6000620007c3620007bd8462000740565b620006e8565b905082815260208101848484011115620007e257620007e16200073b565b5b620007ef84828562000776565b509392505050565b600082601f8301126200080f576200080e6200066d565b5b815162000821848260208601620007ac565b91505092915050565b6000620008416200083b8462000707565b620006e8565b9050808382526020820190506020840283018581111562000867576200086662000736565b5b835b81811015620008b557805167ffffffffffffffff81111562000890576200088f6200066d565b5b8086016200089f8982620007f7565b8552602085019450505060208101905062000869565b5050509392505050565b600082601f830112620008d757620008d66200066d565b5b8151620008e98482602086016200082a565b91505092915050565b600067ffffffffffffffff82111562000910576200090f62000683565b5b602082029050602081019050919050565b6000620009386200093284620008f2565b620006e8565b905080838252602082019050602084028301858111156200095e576200095d62000736565b5b835b81811015620009ac57805167ffffffffffffffff8111156200098757620009866200066d565b5b808601620009968982620008bf565b8552602085019450505060208101905062000960565b5050509392505050565b600082601f830112620009ce57620009cd6200066d565b5b8151620009e084826020860162000921565b91505092915050565b600067ffffffffffffffff82111562000a075762000a0662000683565b5b602082029050602081019050919050565b600062000a2f62000a2984620009e9565b620006e8565b9050808382526020820190506020840283018581111562000a555762000a5462000736565b5b835b8181101562000aa357805167ffffffffffffffff81111562000a7e5762000a7d6200066d565b5b80860162000a8d8982620009b6565b8552602085019450505060208101905062000a57565b5050509392505050565b600082601f83011262000ac55762000ac46200066d565b5b815162000ad784826020860162000a18565b91505092915050565b6000819050919050565b62000af58162000ae0565b811462000b0157600080fd5b50565b60008151905062000b158162000aea565b92915050565b600067ffffffffffffffff82111562000b395762000b3862000683565b5b602082029050602081019050919050565b600080fd5b600080fd5b60006080828403121562000b6d5762000b6c62000b4a565b5b62000b796080620006e8565b9050600082015167ffffffffffffffff81111562000b9c5762000b9b62000b4f565b5b62000baa84828501620007f7565b600083015250602082015167ffffffffffffffff81111562000bd15762000bd062000b4f565b5b62000bdf84828501620007f7565b602083015250604062000bf58482850162000b04565b604083015250606062000c0b8482850162000b04565b60608301525092915050565b600062000c2e62000c288462000b1b565b620006e8565b9050808382526020820190506020840283018581111562000c545762000c5362000736565b5b835b8181101562000ca257805167ffffffffffffffff81111562000c7d5762000c7c6200066d565b5b80860162000c8c898262000b54565b8552602085019450505060208101905062000c56565b5050509392505050565b600082601f83011262000cc45762000cc36200066d565b5b815162000cd684826020860162000c17565b91505092915050565b600080600080600080600060e0888a03121562000d015762000d0062000663565b5b600088015167ffffffffffffffff81111562000d225762000d2162000668565b5b62000d308a828b01620008bf565b975050602088015167ffffffffffffffff81111562000d545762000d5362000668565b5b62000d628a828b01620009b6565b965050604088015167ffffffffffffffff81111562000d865762000d8562000668565b5b62000d948a828b0162000aad565b955050606088015167ffffffffffffffff81111562000db85762000db762000668565b5b62000dc68a828b0162000aad565b945050608088015167ffffffffffffffff81111562000dea5762000de962000668565b5b62000df88a828b0162000aad565b93505060a062000e0b8a828b0162000b04565b92505060c088015167ffffffffffffffff81111562000e2f5762000e2e62000668565b5b62000e3d8a828b0162000cac565b91505092959891949750929550565b600082825260208201905092915050565b7f496e707574206172726179206c656e67746873206d69736d6174636800000000600082015250565b600062000e95601c8362000e4c565b915062000ea28262000e5d565b602082019050919050565b6000602082019050818103600083015262000ec88162000e86565b9050919050565b7f4e487b7100000000000000000000000000000000000000000000000000000000600052601160045260246000fd5b600062000f0b8262000ae0565b915062000f188362000ae0565b9250817fffffffffffffffffffffffffffffffffffffffffffffffffffffffffffffffff048311821515161562000f545762000f5362000ecf565b5b828202905092915050565b600062000f6c8262000ae0565b915062000f798362000ae0565b9250827fffffffffffffffffffffffffffffffffffffffffffffffffffffffffffffffff0382111562000fb15762000fb062000ecf565b5b828201905092915050565b7f4e487b7100000000000000000000000000000000000000000000000000000000600052603260045260246000fd5b600062000ff88262000ae0565b91507fffffffffffffffffffffffffffffffffffffffffffffffffffffffffffffffff8214156200102e576200102d62000ecf565b5b600182019050919050565b600081519050919050565b600081905092915050565b60006200105c8262001039565b62001068818562001044565b93506200107a81856020860162000776565b80840191505092915050565b60006200109482846200104f565b915081905092915050565b7f4e487b7100000000000000000000000000000000000000000000000000000000600052602260045260246000fd5b60006002820490506001821680620010e757607f821691505b60208210811415620010fe57620010fd6200109f565b5b50919050565b61294380620011146000396000f3fe608060405234801561001057600080fd5b50600436106100ea5760003560e01c8063b466f9d61161008c578063cc820d1511610066578063cc820d1514610264578063e6e80c3c14610294578063efb98bcf146102b5578063f3f716e0146102d3576100ea565b8063b466f9d6146101f8578063ba18fd0414610216578063c31478ce14610232576100ea565b8063581c281c116100c8578063581c281c1461016d578063689e1c031461018b578063776a657b146101be57806385a38635146101da576100ea565b8063017a9105146100ef578063101158af1461011f57806353fa2e641461013d575b600080fd5b61010960048036038101906101049190611b4b565b610303565b6040516101169190611c11565b60405180910390f35b6101276103b9565b6040516101349190611c42565b60405180910390f35b61015760048036038101906101529190611d92565b6103bf565b6040516101649190611df6565b60405180910390f35b6101756103f5565b6040516101829190611c11565b60405180910390f35b6101a560048036038101906101a09190611d92565b610489565b6040516101b59493929190611e11565b60405180910390f35b6101d860048036038101906101d39190611e64565b6105df565b005b6101e261084f565b6040516101ef9190611c42565b60405180910390f35b610200610855565b60405161020d9190611c11565b60405180910390f35b610230600480360381019061022b9190611ee7565b610a77565b005b61024c60048036038101906102479190611fb6565b610cb5565b60405161025b939291906121c0565b60405180910390f35b61027e60048036038101906102799190611fb6565b6110dc565b60405161028b9190611c11565b60405180910390f35b61029c611319565b6040516102ac9493929190612485565b60405180910390f35b6102bd6117ef565b6040516102ca9190611c42565b60405180910390f35b6102ed60048036038101906102e89190611b4b565b611817565b6040516102fa9190611c11565b60405180910390f35b6000818154811061031357600080fd5b906000526020600020906002020160009150905080600001805461033690612515565b80601f016020809104026020016040519081016040528092919081815260200182805461036290612515565b80156103af5780601f10610384576101008083540402835291602001916103af565b820191906000526020600020905b81548152906001019060200180831161039257829003601f168201915b5050505050905081565b60045481565b6002818051602081018201805184825260208301602085012081835280955050505050506000915054906101000a900460ff1681565b6060600454421015801561040b57506005544211155b1561044d576040518060400160405280601881526020017f566f74696e672069732063757272656e746c79206f70656e00000000000000008152509050610486565b6040518060400160405280601281526020017f566f74696e672069732066696e6973686564000000000000000000000000000081525090505b90565b6001818051602081018201805184825260208301602085012081835280955050505050506000915090508060000180546104c290612515565b80601f01602080910402602001604051908101604052809291908181526020018280546104ee90612515565b801561053b5780601f106105105761010080835404028352916020019161053b565b820191906000526020600020905b81548152906001019060200180831161051e57829003601f168201915b50505050509080600101805461055090612515565b80601f016020809104026020016040519081016040528092919081815260200182805461057c90612515565b80156105c95780601f1061059e576101008083540402835291602001916105c9565b820191906000526020600020905b8154815290600101906020018083116105ac57829003601f168201915b5050505050908060020154908060030154905084565b600015156002856040516105f39190612583565b908152602001604051809103902060009054906101000a900460ff16151514610651576040517f08c379a00000000000000000000000000000000000000000000000000000000081526004016106489061260c565b60405180910390fd5b6000805490508310610698576040517f08c379a000000000000000000000000000000000000000000000000000000000815260040161068f90612678565b60405180910390fd5b600083815481106106ac576106ab612698565b5b9060005260206000209060020201600101805490508210610702576040517f08c379a00000000000000000000000000000000000000000000000000000000081526004016106f990612713565b60405180910390fd5b6000838154811061071657610715612698565b5b9060005260206000209060020201600101828154811061073957610738612698565b5b906000526020600020906002020160010180549050811061078f576040517f08c379a00000000000000000000000000000000000000000000000000000000081526004016107869061277f565b60405180910390fd5b6001600084815481106107a5576107a4612698565b5b906000526020600020906002020160010183815481106107c8576107c7612698565b5b906000526020600020906002020160010182815481106107eb576107ea612698565b5b9060005260206000209060040201600301600082825461080b91906127ce565b9250508190555060016002856040516108249190612583565b908152602001604051809103902060006101000a81548160ff02191690831515021790555050505050565b60055481565b60608060606000805b6000805490508110156109ec5760005b6000828154811061088257610881612698565b5b9060005260206000209060020201600101805490508110156109d85760006108aa83836110dc565b90506000805b8581101561096e57826040516020016108c99190612583565b604051602081830303815290604052805190602001208882815181106108f2576108f1612698565b5b602002602001015160405160200161090a9190612583565b60405160208183030381529060405280519060200120141561095b5786818151811061093957610938612698565b5b60200260200101805180919061094e90612824565b815250506001915061096e565b808061096690612824565b9150506108b0565b50806109c3578187868151811061098857610987612698565b5b602002602001018190525060018686815181106109a8576109a7612698565b5b60200260200101818152505084806109bf90612824565b9550505b505080806109d090612824565b91505061086e565b5080806109e490612824565b91505061085e565b5060606000805b83811015610a6b5781858281518110610a0f57610a0e612698565b5b60200260200101511115610a5857848181518110610a3057610a2f612698565b5b60200260200101519150858181518110610a4d57610a4c612698565b5b602002602001015192505b8080610a6390612824565b9150506109f3565b50819550505050505090565b600360009054906101000a900473ffffffffffffffffffffffffffffffffffffffff1673ffffffffffffffffffffffffffffffffffffffff163373ffffffffffffffffffffffffffffffffffffffff1614610b07576040517f08c379a0000000000000000000000000000000000000000000000000000000008152600401610afe906128b9565b60405180910390fd5b6000805490508510610b4e576040517f08c379a0000000000000000000000000000000000000000000000000000000008152600401610b4590612678565b60405180910390fd5b60008581548110610b6257610b61612698565b5b9060005260206000209060020201600101805490508410610bb8576040517f08c379a0000000000000000000000000000000000000000000000000000000008152600401610baf90612713565b60405180910390fd5b60008581548110610bcc57610bcb612698565b5b90600052602060002090600202016001018481548110610bef57610bee612698565b5b90600052602060002090600202016001016040518060800160405280858152602001848152602001838152602001600081525090806001815401808255809150506001900390600052602060002090600402016000909190919091506000820151816000019080519060200190610c67929190611a5e565b506020820151816001019080519060200190610c84929190611a5e565b506040820151816002019080519060200190610ca1929190611a5e565b506060820151816003015550505050505050565b60608060606000808681548110610ccf57610cce612698565b5b90600052602060002090600202016001018581548110610cf257610cf1612698565b5b906000526020600020906002020160010180549050905060008167ffffffffffffffff811115610d2557610d24611c67565b5b604051908082528060200260200182016040528015610d5857816020015b6060815260200190600190039081610d435790505b50905060008267ffffffffffffffff811115610d7757610d76611c67565b5b604051908082528060200260200182016040528015610daa57816020015b6060815260200190600190039081610d955790505b50905060008367ffffffffffffffff811115610dc957610dc8611c67565b5b604051908082528060200260200182016040528015610df75781602001602082028036833780820191505090505b50905060005b848110156110c75760008a81548110610e1957610e18612698565b5b90600052602060002090600202016001018981548110610e3c57610e3b612698565b5b90600052602060002090600202016001018181548110610e5f57610e5e612698565b5b90600052602060002090600402016000018054610e7b90612515565b80601f0160208091040260200160405190810160405280929190818152602001828054610ea790612515565b8015610ef45780601f10610ec957610100808354040283529160200191610ef4565b820191906000526020600020905b815481529060010190602001808311610ed757829003601f168201915b5050505050848281518110610f0c57610f0b612698565b5b602002602001018190525060008a81548110610f2b57610f2a612698565b5b90600052602060002090600202016001018981548110610f4e57610f4d612698565b5b90600052602060002090600202016001018181548110610f7157610f70612698565b5b90600052602060002090600402016001018054610f8d90612515565b80601f0160208091040260200160405190810160405280929190818152602001828054610fb990612515565b80156110065780601f10610fdb57610100808354040283529160200191611006565b820191906000526020600020905b815481529060010190602001808311610fe957829003601f168201915b505050505083828151811061101e5761101d612698565b5b602002602001018190525060008a8154811061103d5761103c612698565b5b906000526020600020906002020160010189815481106110605761105f612698565b5b9060005260206000209060020201600101818154811061108357611082612698565b5b9060005260206000209060040201600301548282815181106110a8576110a7612698565b5b60200260200101818152505080806110bf90612824565b915050610dfd565b50828282965096509650505050509250925092565b60606000805490508310611125576040517f08c379a000000000000000000000000000000000000000000000000000000000815260040161111c90612678565b60405180910390fd5b6000838154811061113957611138612698565b5b906000526020600020906002020160010180549050821061118f576040517f08c379a000000000000000000000000000000000000000000000000000000000815260040161118690612713565b60405180910390fd5b60008084815481106111a4576111a3612698565b5b906000526020600020906002020160010183815481106111c7576111c6612698565b5b906000526020600020906002020190506000606060005b836001018054905081101561130c578284600101828154811061120457611203612698565b5b90600052602060002090600402016003015411156112f95783600101818154811061123257611231612698565b5b906000526020600020906004020160030154925083600101818154811061125c5761125b612698565b5b9060005260206000209060040201600101805461127890612515565b80601f01602080910402602001604051908101604052809291908181526020018280546112a490612515565b80156112f15780601f106112c6576101008083540402835291602001916112f1565b820191906000526020600020905b8154815290600101906020018083116112d457829003601f168201915b505050505091505b808061130490612824565b9150506111de565b5080935050505092915050565b60608060608060008080549050905060008167ffffffffffffffff81111561134457611343611c67565b5b60405190808252806020026020018201604052801561137757816020015b60608152602001906001900390816113625790505b50905060008267ffffffffffffffff81111561139657611395611c67565b5b6040519080825280602002602001820160405280156113c45781602001602082028036833780820191505090505b50905060008367ffffffffffffffff8111156113e3576113e2611c67565b5b60405190808252806020026020018201604052801561141657816020015b60608152602001906001900390816114015790505b50905060008467ffffffffffffffff81111561143557611434611c67565b5b60405190808252806020026020018201604052801561146857816020015b60608152602001906001900390816114535790505b50905060005b858110156117d7576000818154811061148a57611489612698565b5b906000526020600020906002020160000180546114a690612515565b80601f01602080910402602001604051908101604052809291908181526020018280546114d290612515565b801561151f5780601f106114f45761010080835404028352916020019161151f565b820191906000526020600020905b81548152906001019060200180831161150257829003601f168201915b505050505085828151811061153757611536612698565b5b60200260200101819052508084828151811061155657611555612698565b5b602002602001018181525050600080828154811061157757611576612698565b5b90600052602060002090600202016001018054905090508067ffffffffffffffff8111156115a8576115a7611c67565b5b6040519080825280602002602001820160405280156115db57816020015b60608152602001906001900390816115c65790505b508483815181106115ef576115ee612698565b5b60200260200101819052508067ffffffffffffffff81111561161457611613611c67565b5b6040519080825280602002602001820160405280156116425781602001602082028036833780820191505090505b5083838151811061165657611655612698565b5b602002602001018190525060005b818110156117c257600083815481106116805761167f612698565b5b906000526020600020906002020160010181815481106116a3576116a2612698565b5b906000526020600020906002020160000180546116bf90612515565b80601f01602080910402602001604051908101604052809291908181526020018280546116eb90612515565b80156117385780601f1061170d57610100808354040283529160200191611738565b820191906000526020600020905b81548152906001019060200180831161171b57829003601f168201915b50505050508584815181106117505761174f612698565b5b6020026020010151828151811061176a57611769612698565b5b60200260200101819052508084848151811061178957611788612698565b5b602002602001015182815181106117a3576117a2612698565b5b60200260200101818152505080806117ba90612824565b915050611664565b505080806117cf90612824565b91505061146e565b50838383839850985098509850505050505090919293565b600060055442106118035760009050611814565b4260055461181191906128d9565b90505b90565b60606000805490508210611860576040517f08c379a000000000000000000000000000000000000000000000000000000000815260040161185790612678565b60405180910390fd5b6060806000805b6000868154811061187b5761187a612698565b5b9060005260206000209060020201600101805490508110156119d15760006118a387836110dc565b90506000805b8481101561196757826040516020016118c29190612583565b604051602081830303815290604052805190602001208782815181106118eb576118ea612698565b5b60200260200101516040516020016119039190612583565b6040516020818303038152906040528051906020012014156119545785818151811061193257611931612698565b5b60200260200101805180919061194790612824565b8152505060019150611967565b808061195f90612824565b9150506118a9565b50806119bc578186858151811061198157611980612698565b5b602002602001018190525060018585815181106119a1576119a0612698565b5b60200260200101818152505083806119b890612824565b9450505b505080806119c990612824565b915050611867565b5060606000805b83811015611a5057818582815181106119f4576119f3612698565b5b60200260200101511115611a3d57848181518110611a1557611a14612698565b5b60200260200101519150858181518110611a3257611a31612698565b5b602002602001015192505b8080611a4890612824565b9150506119d8565b508195505050505050919050565b828054611a6a90612515565b90600052602060002090601f016020900481019282611a8c5760008555611ad3565b82601f10611aa557805160ff1916838001178555611ad3565b82800160010185558215611ad3579182015b82811115611ad2578251825591602001919060010190611ab7565b5b509050611ae09190611ae4565b5090565b5b80821115611afd576000816000905550600101611ae5565b5090565b6000604051905090565b600080fd5b600080fd5b6000819050919050565b611b2881611b15565b8114611b3357600080fd5b50565b600081359050611b4581611b1f565b92915050565b600060208284031215611b6157611b60611b0b565b5b6000611b6f84828501611b36565b91505092915050565b600081519050919050565b600082825260208201905092915050565b60005b83811015611bb2578082015181840152602081019050611b97565b83811115611bc1576000848401525b50505050565b6000601f19601f8301169050919050565b6000611be382611b78565b611bed8185611b83565b9350611bfd818560208601611b94565b611c0681611bc7565b840191505092915050565b60006020820190508181036000830152611c2b8184611bd8565b905092915050565b611c3c81611b15565b82525050565b6000602082019050611c576000830184611c33565b92915050565b600080fd5b600080fd5b7f4e487b7100000000000000000000000000000000000000000000000000000000600052604160045260246000fd5b611c9f82611bc7565b810181811067ffffffffffffffff82111715611cbe57611cbd611c67565b5b80604052505050565b6000611cd1611b01565b9050611cdd8282611c96565b919050565b600067ffffffffffffffff821115611cfd57611cfc611c67565b5b611d0682611bc7565b9050602081019050919050565b82818337600083830152505050565b6000611d35611d3084611ce2565b611cc7565b905082815260208101848484011115611d5157611d50611c62565b5b611d5c848285611d13565b509392505050565b600082601f830112611d7957611d78611c5d565b5b8135611d89848260208601611d22565b91505092915050565b600060208284031215611da857611da7611b0b565b5b600082013567ffffffffffffffff811115611dc657611dc5611b10565b5b611dd284828501611d64565b91505092915050565b60008115159050919050565b611df081611ddb565b82525050565b6000602082019050611e0b6000830184611de7565b92915050565b60006080820190508181036000830152611e2b8187611bd8565b90508181036020830152611e3f8186611bd8565b9050611e4e6040830185611c33565b611e5b6060830184611c33565b95945050505050565b60008060008060808587031215611e7e57611e7d611b0b565b5b600085013567ffffffffffffffff811115611e9c57611e9b611b10565b5b611ea887828801611d64565b9450506020611eb987828801611b36565b9350506040611eca87828801611b36565b9250506060611edb87828801611b36565b91505092959194509250565b600080600080600060a08688031215611f0357611f02611b0b565b5b6000611f1188828901611b36565b9550506020611f2288828901611b36565b945050604086013567ffffffffffffffff811115611f4357611f42611b10565b5b611f4f88828901611d64565b935050606086013567ffffffffffffffff811115611f7057611f6f611b10565b5b611f7c88828901611d64565b925050608086013567ffffffffffffffff811115611f9d57611f9c611b10565b5b611fa988828901611d64565b9150509295509295909350565b60008060408385031215611fcd57611fcc611b0b565b5b6000611fdb85828601611b36565b9250506020611fec85828601611b36565b9150509250929050565b600081519050919050565b600082825260208201905092915050565b6000819050602082019050919050565b600082825260208201905092915050565b600061203e82611b78565b6120488185612022565b9350612058818560208601611b94565b61206181611bc7565b840191505092915050565b60006120788383612033565b905092915050565b6000602082019050919050565b600061209882611ff6565b6120a28185612001565b9350836020820285016120b485612012565b8060005b858110156120f057848403895281516120d1858261206c565b94506120dc83612080565b925060208a019950506001810190506120b8565b50829750879550505050505092915050565b600081519050919050565b600082825260208201905092915050565b6000819050602082019050919050565b61213781611b15565b82525050565b6000612149838361212e565b60208301905092915050565b6000602082019050919050565b600061216d82612102565b612177818561210d565b93506121828361211e565b8060005b838110156121b357815161219a888261213d565b97506121a583612155565b925050600181019050612186565b5085935050505092915050565b600060608201905081810360008301526121da818661208d565b905081810360208301526121ee818561208d565b905081810360408301526122028184612162565b9050949350505050565b600081519050919050565b600082825260208201905092915050565b6000819050602082019050919050565b600082825260208201905092915050565b600061225482611ff6565b61225e8185612238565b93508360208202850161227085612012565b8060005b858110156122ac578484038952815161228d858261206c565b945061229883612080565b925060208a01995050600181019050612274565b50829750879550505050505092915050565b60006122ca8383612249565b905092915050565b6000602082019050919050565b60006122ea8261220c565b6122f48185612217565b93508360208202850161230685612228565b8060005b85811015612342578484038952815161232385826122be565b945061232e836122d2565b925060208a0199505060018101905061230a565b50829750879550505050505092915050565b600081519050919050565b600082825260208201905092915050565b6000819050602082019050919050565b600082825260208201905092915050565b600061239c82612102565b6123a68185612380565b93506123b18361211e565b8060005b838110156123e25781516123c9888261213d565b97506123d483612155565b9250506001810190506123b5565b5085935050505092915050565b60006123fb8383612391565b905092915050565b6000602082019050919050565b600061241b82612354565b612425818561235f565b93508360208202850161243785612370565b8060005b85811015612473578484038952815161245485826123ef565b945061245f83612403565b925060208a0199505060018101905061243b565b50829750879550505050505092915050565b6000608082019050818103600083015261249f818761208d565b905081810360208301526124b38186612162565b905081810360408301526124c781856122df565b905081810360608301526124db8184612410565b905095945050505050565b7f4e487b7100000000000000000000000000000000000000000000000000000000600052602260045260246000fd5b6000600282049050600182168061252d57607f821691505b60208210811415612541576125406124e6565b5b50919050565b600081905092915050565b600061255d82611b78565b6125678185612547565b9350612577818560208601611b94565b80840191505092915050565b600061258f8284612552565b915081905092915050565b7f557365722068617320616c726561647920766f7465642077697468207468697360008201527f20416164686172206e756d626572000000000000000000000000000000000000602082015250565b60006125f6602e83611b83565b91506126018261259a565b604082019050919050565b60006020820190508181036000830152612625816125e9565b9050919050565b7f496e76616c696420737461746520696e64657800000000000000000000000000600082015250565b6000612662601383611b83565b915061266d8261262c565b602082019050919050565b6000602082019050818103600083015261269181612655565b9050919050565b7f4e487b7100000000000000000000000000000000000000000000000000000000600052603260045260246000fd5b7f496e76616c6964206369747920696e6465780000000000000000000000000000600082015250565b60006126fd601283611b83565b9150612708826126c7565b602082019050919050565b6000602082019050818103600083015261272c816126f0565b9050919050565b7f496e76616c69642063616e64696461746520696e646578000000000000000000600082015250565b6000612769601783611b83565b915061277482612733565b602082019050919050565b600060208201905081810360008301526127988161275c565b9050919050565b7f4e487b7100000000000000000000000000000000000000000000000000000000600052601160045260246000fd5b60006127d982611b15565b91506127e483611b15565b9250827fffffffffffffffffffffffffffffffffffffffffffffffffffffffffffffffff038211156128195761281861279f565b5b828201905092915050565b600061282f82611b15565b91507fffffffffffffffffffffffffffffffffffffffffffffffffffffffffffffffff8214156128625761286161279f565b5b600182019050919050565b7f43616c6c6572206973206e6f7420746865206f776e6572000000000000000000600082015250565b60006128a3601783611b83565b91506128ae8261286d565b602082019050919050565b600060208201905081810360008301526128d281612896565b9050919050565b60006128e482611b15565b91506128ef83611b15565b9250828210156129025761290161279f565b5b82820390509291505056fea2646970667358221220f9ec7fc3de997c902c09b4bc2295853e10a7e613f11f226ccfe96f4f4916f0c364736f6c634300080b0033",
  "linkReferences": {},
  "deployedLinkReferences": {}
}