{
  "_format": "hh-sol-artifact-1",
  "contractName": "Voting",
  "sourceName": "contracts/Voting.sol",
  "abi": [
    {
      "inputs": [
        {
          "internalType": "string[]",
          "name": "_stateNames",
          "type": "string[]"
        },
        {
          "internalType": "string[][]",
          "name": "_cityNames",
          "type": "string[][]"
        },
        {
          "internalType": "string[][][]",
          "name": "_candidateNames",
          "type": "string[][][]"
        },
        {
          "internalType": "string[][][]",
          "name": "_candidateParties",
          "type": "string[][][]"
        },
        {
          "internalType": "string[][][]",
          "name": "_candidateLogos",
          "type": "string[][][]"
        },
        {
          "internalType": "uint256",
          "name": "_durationInMinutes",
          "type": "uint256"
        },
        {
          "components": [
            {
              "internalType": "string",
              "name": "name",
              "type": "string"
            },
            {
              "internalType": "string",
              "name": "adharNo",
              "type": "string"
            },
            {
              "internalType": "uint256",
              "name": "stateIndex",
              "type": "uint256"
            },
            {
              "internalType": "uint256",
              "name": "cityIndex",
              "type": "uint256"
            }
          ],
          "internalType": "struct Voting.User[]",
          "name": "_users",
          "type": "tuple[]"
        }
      ],
      "stateMutability": "nonpayable",
      "type": "constructor"
    },
    {
      "inputs": [
        {
          "internalType": "uint256",
          "name": "_stateIndex",
          "type": "uint256"
        },
        {
          "internalType": "uint256",
          "name": "_cityIndex",
          "type": "uint256"
        },
        {
          "internalType": "string",
          "name": "_name",
          "type": "string"
        },
        {
          "internalType": "string",
          "name": "_party",
          "type": "string"
        },
        {
          "internalType": "string",
          "name": "_logoUrl",
          "type": "string"
        }
      ],
      "name": "addCandidate",
      "outputs": [],
      "stateMutability": "nonpayable",
      "type": "function"
    },
    {
      "inputs": [],
      "name": "getAllVotesOfCandidates",
      "outputs": [
        {
          "internalType": "string[]",
          "name": "",
          "type": "string[]"
        },
        {
          "internalType": "uint256[]",
          "name": "",
          "type": "uint256[]"
        },
        {
          "internalType": "uint256",
          "name": "",
          "type": "uint256"
        },
        {
          "internalType": "uint256",
          "name": "",
          "type": "uint256"
        }
      ],
      "stateMutability": "view",
      "type": "function"
    },
    {
      "inputs": [
        {
          "internalType": "uint256",
          "name": "_stateIndex",
          "type": "uint256"
        },
        {
          "internalType": "uint256",
          "name": "_cityIndex",
          "type": "uint256"
        }
      ],
      "name": "getCandidateVotesInCity",
      "outputs": [
        {
          "internalType": "string[]",
          "name": "",
          "type": "string[]"
        },
        {
          "internalType": "string[]",
          "name": "",
          "type": "string[]"
        },
        {
          "internalType": "uint256[]",
          "name": "",
          "type": "uint256[]"
        }
      ],
      "stateMutability": "view",
      "type": "function"
    },
    {
      "inputs": [
        {
          "internalType": "string",
          "name": "_adharNo",
          "type": "string"
        }
      ],
      "name": "getCandidatesForVoter",
      "outputs": [
        {
          "components": [
            {
              "internalType": "string",
              "name": "name",
              "type": "string"
            },
            {
              "internalType": "string",
              "name": "adharNo",
              "type": "string"
            },
            {
              "internalType": "uint256",
              "name": "stateIndex",
              "type": "uint256"
            },
            {
              "internalType": "uint256",
              "name": "cityIndex",
              "type": "uint256"
            }
          ],
          "internalType": "struct Voting.User",
          "name": "",
          "type": "tuple"
        },
        {
          "components": [
            {
              "internalType": "string",
              "name": "name",
              "type": "string"
            },
            {
              "internalType": "string",
              "name": "party",
              "type": "string"
            },
            {
              "internalType": "string",
              "name": "logoUrl",
              "type": "string"
            },
            {
              "internalType": "uint256",
              "name": "voteCount",
              "type": "uint256"
            }
          ],
          "internalType": "struct Voting.Candidate[]",
          "name": "",
          "type": "tuple[]"
        }
      ],
      "stateMutability": "view",
      "type": "function"
    },
    {
      "inputs": [],
      "name": "getRemainingTime",
      "outputs": [
        {
          "internalType": "uint256",
          "name": "",
          "type": "uint256"
        }
      ],
      "stateMutability": "view",
      "type": "function"
    },
    {
      "inputs": [],
      "name": "getStateCityInfo",
      "outputs": [
        {
          "internalType": "string[]",
          "name": "",
          "type": "string[]"
        },
        {
          "internalType": "uint256[]",
          "name": "",
          "type": "uint256[]"
        },
        {
          "internalType": "string[][]",
          "name": "",
          "type": "string[][]"
        },
        {
          "internalType": "uint256[][]",
          "name": "",
          "type": "uint256[][]"
        }
      ],
      "stateMutability": "view",
      "type": "function"
    },
    {
      "inputs": [],
      "name": "getVotingStatus",
      "outputs": [
        {
          "internalType": "string",
          "name": "",
          "type": "string"
        }
      ],
      "stateMutability": "view",
      "type": "function"
    },
    {
      "inputs": [
        {
          "internalType": "uint256",
          "name": "",
          "type": "uint256"
        }
      ],
      "name": "states",
      "outputs": [
        {
          "internalType": "string",
          "name": "name",
          "type": "string"
        }
      ],
      "stateMutability": "view",
      "type": "function"
    },
    {
      "inputs": [
        {
          "internalType": "string",
          "name": "",
          "type": "string"
        }
      ],
      "name": "users",
      "outputs": [
        {
          "internalType": "string",
          "name": "name",
          "type": "string"
        },
        {
          "internalType": "string",
          "name": "adharNo",
          "type": "string"
        },
        {
          "internalType": "uint256",
          "name": "stateIndex",
          "type": "uint256"
        },
        {
          "internalType": "uint256",
          "name": "cityIndex",
          "type": "uint256"
        }
      ],
      "stateMutability": "view",
      "type": "function"
    },
    {
      "inputs": [
        {
          "internalType": "string",
          "name": "_adharNo",
          "type": "string"
        },
        {
          "internalType": "uint256",
          "name": "_stateIndex",
          "type": "uint256"
        },
        {
          "internalType": "uint256",
          "name": "_cityIndex",
          "type": "uint256"
        },
        {
          "internalType": "uint256",
          "name": "_candidateIndex",
          "type": "uint256"
        }
      ],
      "name": "vote",
      "outputs": [],
      "stateMutability": "nonpayable",
      "type": "function"
    },
    {
      "inputs": [
        {
          "internalType": "string",
          "name": "",
          "type": "string"
        }
      ],
      "name": "voters",
      "outputs": [
        {
          "internalType": "bool",
          "name": "",
          "type": "bool"
        }
      ],
      "stateMutability": "view",
      "type": "function"
    },
    {
      "inputs": [],
      "name": "votingEnd",
      "outputs": [
        {
          "internalType": "uint256",
          "name": "",
          "type": "uint256"
        }
      ],
      "stateMutability": "view",
      "type": "function"
    },
    {
      "inputs": [],
      "name": "votingStart",
      "outputs": [
        {
          "internalType": "uint256",
          "name": "",
          "type": "uint256"
        }
      ],
      "stateMutability": "view",
      "type": "function"
    }
  ],
  "bytecode": "0x60806040523480156200001157600080fd5b506040516200443538038062004435833981810160405281019062000037919062000cdf565b855187511480156200004a575084518751145b801562000058575083518751145b801562000066575082518751145b620000a8576040517f08c379a00000000000000000000000000000000000000000000000000000000081526004016200009f9062000ead565b60405180910390fd5b33600360006101000a81548173ffffffffffffffffffffffffffffffffffffffff021916908373ffffffffffffffffffffffffffffffffffffffff16021790555042600481905550603c82620000ff919062000efe565b426200010c919062000f5f565b60058190555060005b87518110156200046957600080600181600181540180825580915050039060005260206000209060020201905088828151811062000158576200015762000fbc565b5b602002602001015181600001908051906020019062000179929190620005a9565b5060005b88838151811062000193576200019262000fbc565b5b60200260200101515181101562000451576000826001016001816001815401808255809150500390600052602060002090600202019050898481518110620001e057620001df62000fbc565b5b60200260200101518281518110620001fd57620001fc62000fbc565b5b60200260200101518160000190805190602001906200021e929190620005a9565b5060005b89858151811062000238576200023762000fbc565b5b6020026020010151838151811062000255576200025462000fbc565b5b60200260200101515181101562000439578160010160405180608001604052808c88815181106200028b576200028a62000fbc565b5b60200260200101518681518110620002a857620002a762000fbc565b5b60200260200101518481518110620002c557620002c462000fbc565b5b602002602001015181526020018b8881518110620002e857620002e762000fbc565b5b6020026020010151868151811062000305576200030462000fbc565b5b6020026020010151848151811062000322576200032162000fbc565b5b602002602001015181526020018a888151811062000345576200034462000fbc565b5b6020026020010151868151811062000362576200036162000fbc565b5b602002602001015184815181106200037f576200037e62000fbc565b5b60200260200101518152602001600081525090806001815401808255809150506001900390600052602060002090600402016000909190919091506000820151816000019080519060200190620003d8929190620005a9565b506020820151816001019080519060200190620003f7929190620005a9565b50604082015181600201908051906020019062000416929190620005a9565b506060820151816003015550508080620004309062000feb565b91505062000222565b50508080620004489062000feb565b9150506200017d565b50508080620004609062000feb565b91505062000115565b5060005b81518110156200059b578181815181106200048d576200048c62000fbc565b5b60200260200101516001838381518110620004ad57620004ac62000fbc565b5b602002602001015160200151604051620004c8919062001086565b90815260200160405180910390206000820151816000019080519060200190620004f4929190620005a9565b50602082015181600101908051906020019062000513929190620005a9565b5060408201518160020155606082015181600301559050506000600283838151811062000545576200054462000fbc565b5b60200260200101516020015160405162000560919062001086565b908152602001604051809103902060006101000a81548160ff0219169083151502179055508080620005929062000feb565b9150506200046d565b505050505050505062001104565b828054620005b790620010ce565b90600052602060002090601f016020900481019282620005db576000855562000627565b82601f10620005f657805160ff191683800117855562000627565b8280016001018555821562000627579182015b828111156200062657825182559160200191906001019062000609565b5b5090506200063691906200063a565b5090565b5b80821115620006555760008160009055506001016200063b565b5090565b6000604051905090565b600080fd5b600080fd5b600080fd5b6000601f19601f8301169050919050565b7f4e487b7100000000000000000000000000000000000000000000000000000000600052604160045260246000fd5b620006bd8262000672565b810181811067ffffffffffffffff82111715620006df57620006de62000683565b5b80604052505050565b6000620006f462000659565b9050620007028282620006b2565b919050565b600067ffffffffffffffff82111562000725576200072462000683565b5b602082029050602081019050919050565b600080fd5b600080fd5b600067ffffffffffffffff8211156200075e576200075d62000683565b5b620007698262000672565b9050602081019050919050565b60005b838110156200079657808201518184015260208101905062000779565b83811115620007a6576000848401525b50505050565b6000620007c3620007bd8462000740565b620006e8565b905082815260208101848484011115620007e257620007e16200073b565b5b620007ef84828562000776565b509392505050565b600082601f8301126200080f576200080e6200066d565b5b815162000821848260208601620007ac565b91505092915050565b6000620008416200083b8462000707565b620006e8565b9050808382526020820190506020840283018581111562000867576200086662000736565b5b835b81811015620008b557805167ffffffffffffffff81111562000890576200088f6200066d565b5b8086016200089f8982620007f7565b8552602085019450505060208101905062000869565b5050509392505050565b600082601f830112620008d757620008d66200066d565b5b8151620008e98482602086016200082a565b91505092915050565b600067ffffffffffffffff82111562000910576200090f62000683565b5b602082029050602081019050919050565b6000620009386200093284620008f2565b620006e8565b905080838252602082019050602084028301858111156200095e576200095d62000736565b5b835b81811015620009ac57805167ffffffffffffffff8111156200098757620009866200066d565b5b808601620009968982620008bf565b8552602085019450505060208101905062000960565b5050509392505050565b600082601f830112620009ce57620009cd6200066d565b5b8151620009e084826020860162000921565b91505092915050565b600067ffffffffffffffff82111562000a075762000a0662000683565b5b602082029050602081019050919050565b600062000a2f62000a2984620009e9565b620006e8565b9050808382526020820190506020840283018581111562000a555762000a5462000736565b5b835b8181101562000aa357805167ffffffffffffffff81111562000a7e5762000a7d6200066d565b5b80860162000a8d8982620009b6565b8552602085019450505060208101905062000a57565b5050509392505050565b600082601f83011262000ac55762000ac46200066d565b5b815162000ad784826020860162000a18565b91505092915050565b6000819050919050565b62000af58162000ae0565b811462000b0157600080fd5b50565b60008151905062000b158162000aea565b92915050565b600067ffffffffffffffff82111562000b395762000b3862000683565b5b602082029050602081019050919050565b600080fd5b600080fd5b60006080828403121562000b6d5762000b6c62000b4a565b5b62000b796080620006e8565b9050600082015167ffffffffffffffff81111562000b9c5762000b9b62000b4f565b5b62000baa84828501620007f7565b600083015250602082015167ffffffffffffffff81111562000bd15762000bd062000b4f565b5b62000bdf84828501620007f7565b602083015250604062000bf58482850162000b04565b604083015250606062000c0b8482850162000b04565b60608301525092915050565b600062000c2e62000c288462000b1b565b620006e8565b9050808382526020820190506020840283018581111562000c545762000c5362000736565b5b835b8181101562000ca257805167ffffffffffffffff81111562000c7d5762000c7c6200066d565b5b80860162000c8c898262000b54565b8552602085019450505060208101905062000c56565b5050509392505050565b600082601f83011262000cc45762000cc36200066d565b5b815162000cd684826020860162000c17565b91505092915050565b600080600080600080600060e0888a03121562000d015762000d0062000663565b5b600088015167ffffffffffffffff81111562000d225762000d2162000668565b5b62000d308a828b01620008bf565b975050602088015167ffffffffffffffff81111562000d545762000d5362000668565b5b62000d628a828b01620009b6565b965050604088015167ffffffffffffffff81111562000d865762000d8562000668565b5b62000d948a828b0162000aad565b955050606088015167ffffffffffffffff81111562000db85762000db762000668565b5b62000dc68a828b0162000aad565b945050608088015167ffffffffffffffff81111562000dea5762000de962000668565b5b62000df88a828b0162000aad565b93505060a062000e0b8a828b0162000b04565b92505060c088015167ffffffffffffffff81111562000e2f5762000e2e62000668565b5b62000e3d8a828b0162000cac565b91505092959891949750929550565b600082825260208201905092915050565b7f496e707574206172726179206c656e67746873206d69736d6174636800000000600082015250565b600062000e95601c8362000e4c565b915062000ea28262000e5d565b602082019050919050565b6000602082019050818103600083015262000ec88162000e86565b9050919050565b7f4e487b7100000000000000000000000000000000000000000000000000000000600052601160045260246000fd5b600062000f0b8262000ae0565b915062000f188362000ae0565b9250817fffffffffffffffffffffffffffffffffffffffffffffffffffffffffffffffff048311821515161562000f545762000f5362000ecf565b5b828202905092915050565b600062000f6c8262000ae0565b915062000f798362000ae0565b9250827fffffffffffffffffffffffffffffffffffffffffffffffffffffffffffffffff0382111562000fb15762000fb062000ecf565b5b828201905092915050565b7f4e487b7100000000000000000000000000000000000000000000000000000000600052603260045260246000fd5b600062000ff88262000ae0565b91507fffffffffffffffffffffffffffffffffffffffffffffffffffffffffffffffff8214156200102e576200102d62000ecf565b5b600182019050919050565b600081519050919050565b600081905092915050565b60006200105c8262001039565b62001068818562001044565b93506200107a81856020860162000776565b80840191505092915050565b60006200109482846200104f565b915081905092915050565b7f4e487b7100000000000000000000000000000000000000000000000000000000600052602260045260246000fd5b60006002820490506001821680620010e757607f821691505b60208210811415620010fe57620010fd6200109f565b5b50919050565b61332180620011146000396000f3fe608060405234801561001057600080fd5b50600436106100cf5760003560e01c8063776a657b1161008c578063ba18fd0411610066578063ba18fd041461022f578063c31478ce1461024b578063e6e80c3c1461027d578063efb98bcf1461029e576100cf565b8063776a657b146101d457806385a38635146101f057806390a9ab901461020e576100cf565b8063017a9105146100d4578063101158af146101045780634e6f187a1461012257806353fa2e6414610153578063581c281c14610183578063689e1c03146101a1575b600080fd5b6100ee60048036038101906100e99190612113565b6102bc565b6040516100fb91906121d9565b60405180910390f35b61010c610372565b604051610119919061220a565b60405180910390f35b61013c6004803603810190610137919061235a565b610378565b60405161014a929190612599565b60405180910390f35b61016d6004803603810190610168919061235a565b610989565b60405161017a91906125eb565b60405180910390f35b61018b6109bf565b60405161019891906121d9565b60405180910390f35b6101bb60048036038101906101b6919061235a565b610a53565b6040516101cb9493929190612606565b60405180910390f35b6101ee60048036038101906101e99190612659565b610ba9565b005b6101f8610e19565b604051610205919061220a565b60405180910390f35b610216610e1f565b604051610226949392919061284d565b60405180910390f35b610249600480360381019061024491906128a0565b61149b565b005b6102656004803603810190610260919061296f565b6116d9565b604051610274939291906129af565b60405180910390f35b610285611b00565b6040516102959493929190612c74565b60405180910390f35b6102a6611fd6565b6040516102b3919061220a565b60405180910390f35b600081815481106102cc57600080fd5b90600052602060002090600202016000915090508060000180546102ef90612d04565b80601f016020809104026020016040519081016040528092919081815260200182805461031b90612d04565b80156103685780601f1061033d57610100808354040283529160200191610368565b820191906000526020600020905b81548152906001019060200180831161034b57829003601f168201915b5050505050905081565b60045481565b610380611ffe565b606060006001846040516103949190612d72565b908152602001604051809103902060000180546103b090612d04565b905014156103f3576040517f08c379a00000000000000000000000000000000000000000000000000000000081526004016103ea90612dd5565b60405180910390fd5b6000805490506001846040516104099190612d72565b9081526020016040518091039020600201541061045b576040517f08c379a000000000000000000000000000000000000000000000000000000000815260040161045290612e41565b60405180910390fd5b600060018460405161046d9190612d72565b908152602001604051809103902060020154815481106104905761048f612e61565b5b9060005260206000209060020201600101805490506001846040516104b59190612d72565b90815260200160405180910390206003015410610507576040517f08c379a00000000000000000000000000000000000000000000000000000000081526004016104fe90612edc565b60405180910390fd5b60006001846040516105199190612d72565b908152602001604051809103902060405180608001604052908160008201805461054290612d04565b80601f016020809104026020016040519081016040528092919081815260200182805461056e90612d04565b80156105bb5780601f10610590576101008083540402835291602001916105bb565b820191906000526020600020905b81548152906001019060200180831161059e57829003601f168201915b505050505081526020016001820180546105d490612d04565b80601f016020809104026020016040519081016040528092919081815260200182805461060090612d04565b801561064d5780601f106106225761010080835404028352916020019161064d565b820191906000526020600020905b81548152906001019060200180831161063057829003601f168201915b5050505050815260200160028201548152602001600382015481525050905060008082604001518154811061068557610684612e61565b5b90600052602060002090600202016001018260600151815481106106ac576106ab612e61565b5b90600052602060002090600202016040518060400160405290816000820180546106d590612d04565b80601f016020809104026020016040519081016040528092919081815260200182805461070190612d04565b801561074e5780601f106107235761010080835404028352916020019161074e565b820191906000526020600020905b81548152906001019060200180831161073157829003601f168201915b5050505050815260200160018201805480602002602001604051908101604052809291908181526020016000905b8282101561096e57838290600052602060002090600402016040518060800160405290816000820180546107af90612d04565b80601f01602080910402602001604051908101604052809291908181526020018280546107db90612d04565b80156108285780601f106107fd57610100808354040283529160200191610828565b820191906000526020600020905b81548152906001019060200180831161080b57829003601f168201915b5050505050815260200160018201805461084190612d04565b80601f016020809104026020016040519081016040528092919081815260200182805461086d90612d04565b80156108ba5780601f1061088f576101008083540402835291602001916108ba565b820191906000526020600020905b81548152906001019060200180831161089d57829003601f168201915b505050505081526020016002820180546108d390612d04565b80601f01602080910402602001604051908101604052809291908181526020018280546108ff90612d04565b801561094c5780601f106109215761010080835404028352916020019161094c565b820191906000526020600020905b81548152906001019060200180831161092f57829003601f168201915b505050505081526020016003820154815250508152602001906001019061077c565b50505050815250509050818160200151935093505050915091565b6002818051602081018201805184825260208301602085012081835280955050505050506000915054906101000a900460ff1681565b606060045442101580156109d557506005544211155b15610a17576040518060400160405280601881526020017f566f74696e672069732063757272656e746c79206f70656e00000000000000008152509050610a50565b6040518060400160405280601281526020017f566f74696e672069732066696e6973686564000000000000000000000000000081525090505b90565b600181805160208101820180518482526020830160208501208183528095505050505050600091509050806000018054610a8c90612d04565b80601f0160208091040260200160405190810160405280929190818152602001828054610ab890612d04565b8015610b055780601f10610ada57610100808354040283529160200191610b05565b820191906000526020600020905b815481529060010190602001808311610ae857829003601f168201915b505050505090806001018054610b1a90612d04565b80601f0160208091040260200160405190810160405280929190818152602001828054610b4690612d04565b8015610b935780601f10610b6857610100808354040283529160200191610b93565b820191906000526020600020905b815481529060010190602001808311610b7657829003601f168201915b5050505050908060020154908060030154905084565b60001515600285604051610bbd9190612d72565b908152602001604051809103902060009054906101000a900460ff16151514610c1b576040517f08c379a0000000000000000000000000000000000000000000000000000000008152600401610c1290612f6e565b60405180910390fd5b6000805490508310610c62576040517f08c379a0000000000000000000000000000000000000000000000000000000008152600401610c5990612fda565b60405180910390fd5b60008381548110610c7657610c75612e61565b5b9060005260206000209060020201600101805490508210610ccc576040517f08c379a0000000000000000000000000000000000000000000000000000000008152600401610cc390613046565b60405180910390fd5b60008381548110610ce057610cdf612e61565b5b90600052602060002090600202016001018281548110610d0357610d02612e61565b5b9060005260206000209060020201600101805490508110610d59576040517f08c379a0000000000000000000000000000000000000000000000000000000008152600401610d50906130b2565b60405180910390fd5b600160008481548110610d6f57610d6e612e61565b5b90600052602060002090600202016001018381548110610d9257610d91612e61565b5b90600052602060002090600202016001018281548110610db557610db4612e61565b5b90600052602060002090600402016003016000828254610dd59190613101565b925050819055506001600285604051610dee9190612d72565b908152602001604051809103902060006101000a81548160ff02191690831515021790555050505050565b60055481565b6060806000806000806000806000606467ffffffffffffffff811115610e4857610e4761222f565b5b604051908082528060200260200182016040528015610e7b57816020015b6060815260200190600190039081610e665790505b5090506000606467ffffffffffffffff811115610e9b57610e9a61222f565b5b604051908082528060200260200182016040528015610ec95781602001602082028036833780820191505090505b50905060005b6000805490508110156111bd5760005b60008281548110610ef357610ef2612e61565b5b9060005260206000209060020201600101805490508110156111a95760005b60008381548110610f2657610f25612e61565b5b90600052602060002090600202016001018281548110610f4957610f48612e61565b5b906000526020600020906002020160010180549050811015611195576000808481548110610f7a57610f79612e61565b5b90600052602060002090600202016001018381548110610f9d57610f9c612e61565b5b90600052602060002090600202016001018281548110610fc057610fbf612e61565b5b906000526020600020906004020190506000805b8a81101561109c5782600101604051602001610ff091906131eb565b6040516020818303038152906040528051906020012088828151811061101957611018612e61565b5b60200260200101516040516020016110319190612d72565b60405160208183030381529060405280519060200120141561108957826003015487828151811061106557611064612e61565b5b602002602001018181516110799190613101565b915081815250506001915061109c565b808061109490613202565b915050610fd4565b5080611180578160010180546110b190612d04565b80601f01602080910402602001604051908101604052809291908181526020018280546110dd90612d04565b801561112a5780601f106110ff5761010080835404028352916020019161112a565b820191906000526020600020905b81548152906001019060200180831161110d57829003601f168201915b5050505050878b8151811061114257611141612e61565b5b60200260200101819052508160030154868b8151811061116557611164612e61565b5b602002602001018181525050898061117c90613202565b9a50505b5050808061118d90613202565b915050610f12565b5080806111a190613202565b915050610edf565b5080806111b590613202565b915050610ecf565b5060005b60008054905081101561134f5760005b600082815481106111e5576111e4612e61565b5b90600052602060002090600202016001018054905081101561133b5760005b6000838154811061121857611217612e61565b5b9060005260206000209060020201600101828154811061123b5761123a612e61565b5b9060005260206000209060020201600101805490508110156113275760026000848154811061126d5761126c612e61565b5b906000526020600020906002020160010183815481106112905761128f612e61565b5b906000526020600020906002020160010182815481106112b3576112b2612e61565b5b90600052602060002090600402016000016040516112d191906131eb565b908152602001604051809103902060009054906101000a900460ff16156113055788806112fd90613202565b995050611314565b858061131090613202565b9650505b808061131f90613202565b915050611204565b50808061133390613202565b9150506111d1565b50808061134790613202565b9150506111c1565b5060008567ffffffffffffffff81111561136c5761136b61222f565b5b60405190808252806020026020018201604052801561139f57816020015b606081526020019060019003908161138a5790505b50905060008667ffffffffffffffff8111156113be576113bd61222f565b5b6040519080825280602002602001820160405280156113ec5781602001602082028036833780820191505090505b50905060005b878110156114805784818151811061140d5761140c612e61565b5b602002602001015183828151811061142857611427612e61565b5b602002602001018190525083818151811061144657611445612e61565b5b602002602001015182828151811061146157611460612e61565b5b602002602001018181525050808061147890613202565b9150506113f2565b50818189879b509b509b509b50505050505050505090919293565b600360009054906101000a900473ffffffffffffffffffffffffffffffffffffffff1673ffffffffffffffffffffffffffffffffffffffff163373ffffffffffffffffffffffffffffffffffffffff161461152b576040517f08c379a000000000000000000000000000000000000000000000000000000000815260040161152290613297565b60405180910390fd5b6000805490508510611572576040517f08c379a000000000000000000000000000000000000000000000000000000000815260040161156990612fda565b60405180910390fd5b6000858154811061158657611585612e61565b5b90600052602060002090600202016001018054905084106115dc576040517f08c379a00000000000000000000000000000000000000000000000000000000081526004016115d390613046565b60405180910390fd5b600085815481106115f0576115ef612e61565b5b9060005260206000209060020201600101848154811061161357611612612e61565b5b9060005260206000209060020201600101604051806080016040528085815260200184815260200183815260200160008152509080600181540180825580915050600190039060005260206000209060040201600090919091909150600082015181600001908051906020019061168b929190612026565b5060208201518160010190805190602001906116a8929190612026565b5060408201518160020190805190602001906116c5929190612026565b506060820151816003015550505050505050565b606080606060008086815481106116f3576116f2612e61565b5b9060005260206000209060020201600101858154811061171657611715612e61565b5b906000526020600020906002020160010180549050905060008167ffffffffffffffff8111156117495761174861222f565b5b60405190808252806020026020018201604052801561177c57816020015b60608152602001906001900390816117675790505b50905060008267ffffffffffffffff81111561179b5761179a61222f565b5b6040519080825280602002602001820160405280156117ce57816020015b60608152602001906001900390816117b95790505b50905060008367ffffffffffffffff8111156117ed576117ec61222f565b5b60405190808252806020026020018201604052801561181b5781602001602082028036833780820191505090505b50905060005b84811015611aeb5760008a8154811061183d5761183c612e61565b5b906000526020600020906002020160010189815481106118605761185f612e61565b5b9060005260206000209060020201600101818154811061188357611882612e61565b5b9060005260206000209060040201600001805461189f90612d04565b80601f01602080910402602001604051908101604052809291908181526020018280546118cb90612d04565b80156119185780601f106118ed57610100808354040283529160200191611918565b820191906000526020600020905b8154815290600101906020018083116118fb57829003601f168201915b50505050508482815181106119305761192f612e61565b5b602002602001018190525060008a8154811061194f5761194e612e61565b5b9060005260206000209060020201600101898154811061197257611971612e61565b5b9060005260206000209060020201600101818154811061199557611994612e61565b5b906000526020600020906004020160010180546119b190612d04565b80601f01602080910402602001604051908101604052809291908181526020018280546119dd90612d04565b8015611a2a5780601f106119ff57610100808354040283529160200191611a2a565b820191906000526020600020905b815481529060010190602001808311611a0d57829003601f168201915b5050505050838281518110611a4257611a41612e61565b5b602002602001018190525060008a81548110611a6157611a60612e61565b5b90600052602060002090600202016001018981548110611a8457611a83612e61565b5b90600052602060002090600202016001018181548110611aa757611aa6612e61565b5b906000526020600020906004020160030154828281518110611acc57611acb612e61565b5b6020026020010181815250508080611ae390613202565b915050611821565b50828282965096509650505050509250925092565b60608060608060008080549050905060008167ffffffffffffffff811115611b2b57611b2a61222f565b5b604051908082528060200260200182016040528015611b5e57816020015b6060815260200190600190039081611b495790505b50905060008267ffffffffffffffff811115611b7d57611b7c61222f565b5b604051908082528060200260200182016040528015611bab5781602001602082028036833780820191505090505b50905060008367ffffffffffffffff811115611bca57611bc961222f565b5b604051908082528060200260200182016040528015611bfd57816020015b6060815260200190600190039081611be85790505b50905060008467ffffffffffffffff811115611c1c57611c1b61222f565b5b604051908082528060200260200182016040528015611c4f57816020015b6060815260200190600190039081611c3a5790505b50905060005b85811015611fbe5760008181548110611c7157611c70612e61565b5b90600052602060002090600202016000018054611c8d90612d04565b80601f0160208091040260200160405190810160405280929190818152602001828054611cb990612d04565b8015611d065780601f10611cdb57610100808354040283529160200191611d06565b820191906000526020600020905b815481529060010190602001808311611ce957829003601f168201915b5050505050858281518110611d1e57611d1d612e61565b5b602002602001018190525080848281518110611d3d57611d3c612e61565b5b6020026020010181815250506000808281548110611d5e57611d5d612e61565b5b90600052602060002090600202016001018054905090508067ffffffffffffffff811115611d8f57611d8e61222f565b5b604051908082528060200260200182016040528015611dc257816020015b6060815260200190600190039081611dad5790505b50848381518110611dd657611dd5612e61565b5b60200260200101819052508067ffffffffffffffff811115611dfb57611dfa61222f565b5b604051908082528060200260200182016040528015611e295781602001602082028036833780820191505090505b50838381518110611e3d57611e3c612e61565b5b602002602001018190525060005b81811015611fa95760008381548110611e6757611e66612e61565b5b90600052602060002090600202016001018181548110611e8a57611e89612e61565b5b90600052602060002090600202016000018054611ea690612d04565b80601f0160208091040260200160405190810160405280929190818152602001828054611ed290612d04565b8015611f1f5780601f10611ef457610100808354040283529160200191611f1f565b820191906000526020600020905b815481529060010190602001808311611f0257829003601f168201915b5050505050858481518110611f3757611f36612e61565b5b60200260200101518281518110611f5157611f50612e61565b5b602002602001018190525080848481518110611f7057611f6f612e61565b5b60200260200101518281518110611f8a57611f89612e61565b5b6020026020010181815250508080611fa190613202565b915050611e4b565b50508080611fb690613202565b915050611c55565b50838383839850985098509850505050505090919293565b60006005544210611fea5760009050611ffb565b42600554611ff891906132b7565b90505b90565b6040518060800160405280606081526020016060815260200160008152602001600081525090565b82805461203290612d04565b90600052602060002090601f016020900481019282612054576000855561209b565b82601f1061206d57805160ff191683800117855561209b565b8280016001018555821561209b579182015b8281111561209a57825182559160200191906001019061207f565b5b5090506120a891906120ac565b5090565b5b808211156120c55760008160009055506001016120ad565b5090565b6000604051905090565b600080fd5b600080fd5b6000819050919050565b6120f0816120dd565b81146120fb57600080fd5b50565b60008135905061210d816120e7565b92915050565b600060208284031215612129576121286120d3565b5b6000612137848285016120fe565b91505092915050565b600081519050919050565b600082825260208201905092915050565b60005b8381101561217a57808201518184015260208101905061215f565b83811115612189576000848401525b50505050565b6000601f19601f8301169050919050565b60006121ab82612140565b6121b5818561214b565b93506121c581856020860161215c565b6121ce8161218f565b840191505092915050565b600060208201905081810360008301526121f381846121a0565b905092915050565b612204816120dd565b82525050565b600060208201905061221f60008301846121fb565b92915050565b600080fd5b600080fd5b7f4e487b7100000000000000000000000000000000000000000000000000000000600052604160045260246000fd5b6122678261218f565b810181811067ffffffffffffffff821117156122865761228561222f565b5b80604052505050565b60006122996120c9565b90506122a5828261225e565b919050565b600067ffffffffffffffff8211156122c5576122c461222f565b5b6122ce8261218f565b9050602081019050919050565b82818337600083830152505050565b60006122fd6122f8846122aa565b61228f565b9050828152602081018484840111156123195761231861222a565b5b6123248482856122db565b509392505050565b600082601f83011261234157612340612225565b5b81356123518482602086016122ea565b91505092915050565b6000602082840312156123705761236f6120d3565b5b600082013567ffffffffffffffff81111561238e5761238d6120d8565b5b61239a8482850161232c565b91505092915050565b600082825260208201905092915050565b60006123bf82612140565b6123c981856123a3565b93506123d981856020860161215c565b6123e28161218f565b840191505092915050565b6123f6816120dd565b82525050565b6000608083016000830151848203600086015261241982826123b4565b9150506020830151848203602086015261243382826123b4565b915050604083015161244860408601826123ed565b50606083015161245b60608601826123ed565b508091505092915050565b600081519050919050565b600082825260208201905092915050565b6000819050602082019050919050565b600060808301600083015184820360008601526124af82826123b4565b915050602083015184820360208601526124c982826123b4565b915050604083015184820360408601526124e382826123b4565b91505060608301516124f860608601826123ed565b508091505092915050565b600061250f8383612492565b905092915050565b6000602082019050919050565b600061252f82612466565b6125398185612471565b93508360208202850161254b85612482565b8060005b8581101561258757848403895281516125688582612503565b945061257383612517565b925060208a0199505060018101905061254f565b50829750879550505050505092915050565b600060408201905081810360008301526125b381856123fc565b905081810360208301526125c78184612524565b90509392505050565b60008115159050919050565b6125e5816125d0565b82525050565b600060208201905061260060008301846125dc565b92915050565b6000608082019050818103600083015261262081876121a0565b9050818103602083015261263481866121a0565b905061264360408301856121fb565b61265060608301846121fb565b95945050505050565b60008060008060808587031215612673576126726120d3565b5b600085013567ffffffffffffffff811115612691576126906120d8565b5b61269d8782880161232c565b94505060206126ae878288016120fe565b93505060406126bf878288016120fe565b92505060606126d0878288016120fe565b91505092959194509250565b600081519050919050565b600082825260208201905092915050565b6000819050602082019050919050565b600061271483836123b4565b905092915050565b6000602082019050919050565b6000612734826126dc565b61273e81856126e7565b935083602082028501612750856126f8565b8060005b8581101561278c578484038952815161276d8582612708565b94506127788361271c565b925060208a01995050600181019050612754565b50829750879550505050505092915050565b600081519050919050565b600082825260208201905092915050565b6000819050602082019050919050565b60006127d683836123ed565b60208301905092915050565b6000602082019050919050565b60006127fa8261279e565b61280481856127a9565b935061280f836127ba565b8060005b8381101561284057815161282788826127ca565b9750612832836127e2565b925050600181019050612813565b5085935050505092915050565b600060808201905081810360008301526128678187612729565b9050818103602083015261287b81866127ef565b905061288a60408301856121fb565b61289760608301846121fb565b95945050505050565b600080600080600060a086880312156128bc576128bb6120d3565b5b60006128ca888289016120fe565b95505060206128db888289016120fe565b945050604086013567ffffffffffffffff8111156128fc576128fb6120d8565b5b6129088882890161232c565b935050606086013567ffffffffffffffff811115612929576129286120d8565b5b6129358882890161232c565b925050608086013567ffffffffffffffff811115612956576129556120d8565b5b6129628882890161232c565b9150509295509295909350565b60008060408385031215612986576129856120d3565b5b6000612994858286016120fe565b92505060206129a5858286016120fe565b9150509250929050565b600060608201905081810360008301526129c98186612729565b905081810360208301526129dd8185612729565b905081810360408301526129f181846127ef565b9050949350505050565b600081519050919050565b600082825260208201905092915050565b6000819050602082019050919050565b600082825260208201905092915050565b6000612a43826126dc565b612a4d8185612a27565b935083602082028501612a5f856126f8565b8060005b85811015612a9b5784840389528151612a7c8582612708565b9450612a878361271c565b925060208a01995050600181019050612a63565b50829750879550505050505092915050565b6000612ab98383612a38565b905092915050565b6000602082019050919050565b6000612ad9826129fb565b612ae38185612a06565b935083602082028501612af585612a17565b8060005b85811015612b315784840389528151612b128582612aad565b9450612b1d83612ac1565b925060208a01995050600181019050612af9565b50829750879550505050505092915050565b600081519050919050565b600082825260208201905092915050565b6000819050602082019050919050565b600082825260208201905092915050565b6000612b8b8261279e565b612b958185612b6f565b9350612ba0836127ba565b8060005b83811015612bd1578151612bb888826127ca565b9750612bc3836127e2565b925050600181019050612ba4565b5085935050505092915050565b6000612bea8383612b80565b905092915050565b6000602082019050919050565b6000612c0a82612b43565b612c148185612b4e565b935083602082028501612c2685612b5f565b8060005b85811015612c625784840389528151612c438582612bde565b9450612c4e83612bf2565b925060208a01995050600181019050612c2a565b50829750879550505050505092915050565b60006080820190508181036000830152612c8e8187612729565b90508181036020830152612ca281866127ef565b90508181036040830152612cb68185612ace565b90508181036060830152612cca8184612bff565b905095945050505050565b7f4e487b7100000000000000000000000000000000000000000000000000000000600052602260045260246000fd5b60006002820490506001821680612d1c57607f821691505b60208210811415612d3057612d2f612cd5565b5b50919050565b600081905092915050565b6000612d4c82612140565b612d568185612d36565b9350612d6681856020860161215c565b80840191505092915050565b6000612d7e8284612d41565b915081905092915050565b7f55736572206e6f7420666f756e64000000000000000000000000000000000000600082015250565b6000612dbf600e8361214b565b9150612dca82612d89565b602082019050919050565b60006020820190508181036000830152612dee81612db2565b9050919050565b7f496e76616c696420737461746520696e64657820666f72207573657200000000600082015250565b6000612e2b601c8361214b565b9150612e3682612df5565b602082019050919050565b60006020820190508181036000830152612e5a81612e1e565b9050919050565b7f4e487b7100000000000000000000000000000000000000000000000000000000600052603260045260246000fd5b7f496e76616c6964206369747920696e64657820666f7220757365720000000000600082015250565b6000612ec6601b8361214b565b9150612ed182612e90565b602082019050919050565b60006020820190508181036000830152612ef581612eb9565b9050919050565b7f557365722068617320616c726561647920766f7465642077697468207468697360008201527f20416164686172206e756d626572000000000000000000000000000000000000602082015250565b6000612f58602e8361214b565b9150612f6382612efc565b604082019050919050565b60006020820190508181036000830152612f8781612f4b565b9050919050565b7f496e76616c696420737461746520696e64657800000000000000000000000000600082015250565b6000612fc460138361214b565b9150612fcf82612f8e565b602082019050919050565b60006020820190508181036000830152612ff381612fb7565b9050919050565b7f496e76616c6964206369747920696e6465780000000000000000000000000000600082015250565b600061303060128361214b565b915061303b82612ffa565b602082019050919050565b6000602082019050818103600083015261305f81613023565b9050919050565b7f496e76616c69642063616e64696461746520696e646578000000000000000000600082015250565b600061309c60178361214b565b91506130a782613066565b602082019050919050565b600060208201905081810360008301526130cb8161308f565b9050919050565b7f4e487b7100000000000000000000000000000000000000000000000000000000600052601160045260246000fd5b600061310c826120dd565b9150613117836120dd565b9250827fffffffffffffffffffffffffffffffffffffffffffffffffffffffffffffffff0382111561314c5761314b6130d2565b5b828201905092915050565b60008190508160005260206000209050919050565b6000815461317981612d04565b6131838186612d36565b9450600182166000811461319e57600181146131af576131e2565b60ff198316865281860193506131e2565b6131b885613157565b60005b838110156131da578154818901526001820191506020810190506131bb565b838801955050505b50505092915050565b60006131f7828461316c565b915081905092915050565b600061320d826120dd565b91507fffffffffffffffffffffffffffffffffffffffffffffffffffffffffffffffff8214156132405761323f6130d2565b5b600182019050919050565b7f43616c6c6572206973206e6f7420746865206f776e6572000000000000000000600082015250565b600061328160178361214b565b915061328c8261324b565b602082019050919050565b600060208201905081810360008301526132b081613274565b9050919050565b60006132c2826120dd565b91506132cd836120dd565b9250828210156132e0576132df6130d2565b5b82820390509291505056fea264697066735822122023eee8f53a97272bde80529d9d565b32105e14017686938ce7d0ad01797ccaf864736f6c634300080b0033",
  "linkReferences": {},
  "deployedLinkReferences": {}
}